{
    "contractName": "Auction",
    "abi": [
        {
            "inputs": [
                {
                    "internalType": "address payable",
                    "name": "_seller",
                    "type": "address"
                },
                {
                    "internalType": "uint256",
                    "name": "_energyAmount",
                    "type": "uint256"
                },
                {
                    "internalType": "uint256",
                    "name": "_minBidValue",
                    "type": "uint256"
                },
                {
                    "internalType": "uint256",
                    "name": "_depositValue",
                    "type": "uint256"
                }
            ],
            "stateMutability": "nonpayable",
            "type": "constructor"
        },
        {
            "anonymous": false,
            "inputs": [
                {
                    "components": [
                        {
                            "internalType": "address",
                            "name": "accountAddress",
                            "type": "address"
                        },
                        {
                            "internalType": "uint256",
                            "name": "bid",
                            "type": "uint256"
                        }
                    ],
                    "indexed": false,
                    "internalType": "struct Auction.Winner",
                    "name": "winner",
                    "type": "tuple"
                },
                {
                    "indexed": false,
                    "internalType": "uint256",
                    "name": "contractBalance",
                    "type": "uint256"
                },
                {
                    "indexed": false,
                    "internalType": "uint256",
                    "name": "currentTime",
                    "type": "uint256"
                }
            ],
            "name": "AuctionEnded",
            "type": "event"
        },
        {
            "anonymous": false,
            "inputs": [
                {
                    "indexed": false,
                    "internalType": "string",
                    "name": "whichRound",
                    "type": "string"
                },
                {
                    "indexed": false,
                    "internalType": "uint256",
                    "name": "currentTime",
                    "type": "uint256"
                }
            ],
            "name": "ClosedAuctionWithNoBids",
            "type": "event"
        },
        {
            "anonymous": false,
            "inputs": [
                {
                    "indexed": false,
                    "internalType": "string",
                    "name": "whichRound",
                    "type": "string"
                },
                {
                    "indexed": false,
                    "internalType": "enum Auction.State",
                    "name": "state",
                    "type": "uint8"
                },
                {
                    "indexed": false,
                    "internalType": "uint256",
                    "name": "currentTime",
                    "type": "uint256"
                }
            ],
            "name": "ClosedRound",
            "type": "event"
        },
        {
            "anonymous": false,
            "inputs": [
                {
                    "components": [
                        {
                            "internalType": "enum Auction.State",
                            "name": "currentState",
                            "type": "uint8"
                        },
                        {
                            "internalType": "address payable",
                            "name": "seller",
                            "type": "address"
                        },
                        {
                            "internalType": "uint256",
                            "name": "energyAmount",
                            "type": "uint256"
                        },
                        {
                            "internalType": "uint256",
                            "name": "minBidValue",
                            "type": "uint256"
                        },
                        {
                            "internalType": "uint256",
                            "name": "depositValue",
                            "type": "uint256"
                        },
                        {
                            "internalType": "uint256",
                            "name": "hiddenBidsDeadline",
                            "type": "uint256"
                        },
                        {
                            "internalType": "uint256",
                            "name": "openBidsDeadline",
                            "type": "uint256"
                        }
                    ],
                    "indexed": false,
                    "internalType": "struct Auction.AuctionInfo",
                    "name": "auctionInfo",
                    "type": "tuple"
                },
                {
                    "indexed": false,
                    "internalType": "uint256",
                    "name": "currentTime",
                    "type": "uint256"
                }
            ],
            "name": "CreatedNewAuction",
            "type": "event"
        },
        {
            "anonymous": false,
            "inputs": [
                {
                    "components": [
                        {
                            "internalType": "address",
                            "name": "accountAddress",
                            "type": "address"
                        },
                        {
                            "internalType": "uint256",
                            "name": "bid",
                            "type": "uint256"
                        }
                    ],
                    "indexed": false,
                    "internalType": "struct Auction.Winner",
                    "name": "winner",
                    "type": "tuple"
                },
                {
                    "indexed": false,
                    "internalType": "uint256",
                    "name": "currentTime",
                    "type": "uint256"
                }
            ],
            "name": "FoundHighestBid",
            "type": "event"
        },
        {
            "anonymous": false,
            "inputs": [
                {
                    "indexed": false,
                    "internalType": "address",
                    "name": "bidder",
                    "type": "address"
                },
                {
                    "indexed": false,
                    "internalType": "uint256",
                    "name": "deposit",
                    "type": "uint256"
                },
                {
                    "indexed": false,
                    "internalType": "uint256",
                    "name": "currentTime",
                    "type": "uint256"
                }
            ],
            "name": "ReceivedHiddenBid",
            "type": "event"
        },
        {
            "anonymous": false,
            "inputs": [
                {
                    "indexed": false,
                    "internalType": "address",
                    "name": "bidder",
                    "type": "address"
                },
                {
                    "indexed": false,
                    "internalType": "uint256",
                    "name": "bid",
                    "type": "uint256"
                },
                {
                    "indexed": false,
                    "internalType": "uint256",
                    "name": "currentTime",
                    "type": "uint256"
                }
            ],
            "name": "ReceivedOpenBid",
            "type": "event"
        },
        {
            "anonymous": false,
            "inputs": [
                {
                    "indexed": false,
                    "internalType": "address",
                    "name": "retrievedBy",
                    "type": "address"
                },
                {
                    "indexed": false,
                    "internalType": "uint256",
                    "name": "currentTime",
                    "type": "uint256"
                }
            ],
            "name": "RetrievedToken",
            "type": "event"
        },
        {
            "anonymous": false,
            "inputs": [
                {
                    "indexed": false,
                    "internalType": "string",
                    "name": "context",
                    "type": "string"
                },
                {
                    "indexed": false,
                    "internalType": "address",
                    "name": "to",
                    "type": "address"
                },
                {
                    "indexed": false,
                    "internalType": "uint256",
                    "name": "value",
                    "type": "uint256"
                },
                {
                    "indexed": false,
                    "internalType": "uint256",
                    "name": "currentTime",
                    "type": "uint256"
                }
            ],
            "name": "TransferEvent",
            "type": "event"
        },
        {
            "inputs": [],
            "name": "auctionInfo",
            "outputs": [
                {
                    "internalType": "enum Auction.State",
                    "name": "currentState",
                    "type": "uint8"
                },
                {
                    "internalType": "address payable",
                    "name": "seller",
                    "type": "address"
                },
                {
                    "internalType": "uint256",
                    "name": "energyAmount",
                    "type": "uint256"
                },
                {
                    "internalType": "uint256",
                    "name": "minBidValue",
                    "type": "uint256"
                },
                {
                    "internalType": "uint256",
                    "name": "depositValue",
                    "type": "uint256"
                },
                {
                    "internalType": "uint256",
                    "name": "hiddenBidsDeadline",
                    "type": "uint256"
                },
                {
                    "internalType": "uint256",
                    "name": "openBidsDeadline",
                    "type": "uint256"
                }
            ],
            "stateMutability": "view",
            "type": "function"
        },
        {
            "inputs": [
                {
                    "internalType": "bytes32",
                    "name": "bid",
                    "type": "bytes32"
                }
            ],
            "name": "bidInHiddenRound",
            "outputs": [],
            "stateMutability": "payable",
            "type": "function"
        },
        {
            "inputs": [
                {
                    "internalType": "uint256",
                    "name": "openBid",
                    "type": "uint256"
                },
                {
                    "internalType": "string",
                    "name": "salt",
                    "type": "string"
                }
            ],
            "name": "bidInOpenRound",
            "outputs": [],
            "stateMutability": "nonpayable",
            "type": "function"
        },
        {
            "inputs": [
                {
                    "internalType": "address",
                    "name": "",
                    "type": "address"
                }
            ],
            "name": "bids",
            "outputs": [
                {
                    "internalType": "bool",
                    "name": "existsHiddenBid",
                    "type": "bool"
                },
                {
                    "internalType": "bytes32",
                    "name": "hiddenBid",
                    "type": "bytes32"
                },
                {
                    "internalType": "uint256",
                    "name": "openBid",
                    "type": "uint256"
                },
                {
                    "internalType": "bool",
                    "name": "isOpenBidValid",
                    "type": "bool"
                },
                {
                    "internalType": "uint256",
                    "name": "deposit",
                    "type": "uint256"
                }
            ],
            "stateMutability": "view",
            "type": "function"
        },
        {
            "inputs": [],
            "name": "closeAuction",
            "outputs": [],
            "stateMutability": "nonpayable",
            "type": "function"
        },
        {
            "inputs": [],
            "name": "closeHiddenRound",
            "outputs": [],
            "stateMutability": "nonpayable",
            "type": "function"
        },
        {
            "inputs": [],
            "name": "closeOpenRound",
            "outputs": [],
            "stateMutability": "nonpayable",
            "type": "function"
        },
        {
            "inputs": [],
            "name": "deleteAuction",
            "outputs": [],
            "stateMutability": "nonpayable",
            "type": "function"
        },
        {
            "inputs": [],
            "name": "getAuctionInfo",
            "outputs": [
                {
                    "internalType": "enum Auction.State",
                    "name": "",
                    "type": "uint8"
                },
                {
                    "internalType": "address",
                    "name": "",
                    "type": "address"
                },
                {
                    "internalType": "uint256",
                    "name": "",
                    "type": "uint256"
                },
                {
                    "internalType": "uint256",
                    "name": "",
                    "type": "uint256"
                },
                {
                    "internalType": "uint256",
                    "name": "",
                    "type": "uint256"
                },
                {
                    "internalType": "uint256",
                    "name": "",
                    "type": "uint256"
                },
                {
                    "internalType": "uint256",
                    "name": "",
                    "type": "uint256"
                }
            ],
            "stateMutability": "view",
            "type": "function"
        },
        {
            "inputs": [],
            "name": "getCurrentState",
            "outputs": [
                {
                    "internalType": "enum Auction.State",
                    "name": "",
                    "type": "uint8"
                }
            ],
            "stateMutability": "view",
            "type": "function"
        },
        {
            "inputs": [],
            "name": "getHiddenBidsLength",
            "outputs": [
                {
                    "internalType": "uint256",
                    "name": "",
                    "type": "uint256"
                }
            ],
            "stateMutability": "view",
            "type": "function"
        },
        {
            "inputs": [],
            "name": "getTokenValidUntil",
            "outputs": [
                {
                    "internalType": "uint256",
                    "name": "",
                    "type": "uint256"
                }
            ],
            "stateMutability": "view",
            "type": "function"
        },
        {
            "inputs": [
                {
                    "internalType": "uint256",
                    "name": "",
                    "type": "uint256"
                }
            ],
            "name": "hiddenBidsAddresses",
            "outputs": [
                {
                    "internalType": "address",
                    "name": "",
                    "type": "address"
                }
            ],
            "stateMutability": "view",
            "type": "function"
        },
        {
            "inputs": [],
            "name": "retrieveToken",
            "outputs": [
                {
                    "components": [
                        {
                            "internalType": "address",
                            "name": "winner",
                            "type": "address"
                        },
                        {
                            "internalType": "address",
                            "name": "auctionContract",
                            "type": "address"
                        },
                        {
                            "internalType": "uint256",
                            "name": "energyAmount",
                            "type": "uint256"
                        },
                        {
                            "internalType": "uint256",
                            "name": "validUntil",
                            "type": "uint256"
                        },
                        {
                            "internalType": "bool",
                            "name": "isSpent",
                            "type": "bool"
                        }
                    ],
                    "internalType": "struct Auction.Token",
                    "name": "",
                    "type": "tuple"
                }
            ],
            "stateMutability": "nonpayable",
            "type": "function"
        },
        {
            "inputs": [],
            "name": "winner",
            "outputs": [
                {
                    "internalType": "address",
                    "name": "accountAddress",
                    "type": "address"
                },
                {
                    "internalType": "uint256",
                    "name": "bid",
                    "type": "uint256"
                }
            ],
            "stateMutability": "view",
            "type": "function"
        }
    ],
    "bytecode": "60806040523480156200001157600080fd5b50604051620016f7380380620016f7833981016040819052620000349162000194565b600080546001600160a01b031916331781556040805160e0810182529182526001600160a01b0386166020830152810184905260608101620000788460016200027f565b81526020016200008a8360016200027f565b81526020016200009e426201518062000264565b8152602001620000b2426202a30062000264565b9052805160018054909190829060ff191681836003811115620000e557634e487b7160e01b600052602160045260246000fd5b0217905550602082015181546001600160a01b0390911661010002610100600160a81b03199091161781556040820151600180830191909155606083015160028301556080830151600383015560a0830151600483015560c0909201516005909101557fc932bfe1d2a8c99fe45058b82a3d6b37508c1a1eef86e5447bd1588121ab417590620001724290565b6040516200018292919062000202565b60405180910390a150505050620002b7565b60008060008060808587031215620001aa578384fd5b84516001600160a01b0381168114620001c1578485fd5b60208601516040870151606090970151919890975090945092505050565b60048110620001fe57634e487b7160e01b600052602160045260246000fd5b9052565b8254610100820190620002198360ff8316620001df565b60081c6001600160a01b03166020830152600184015460408301526002840154606083015260038401546080830152600484015460a083015260059093015460c082015260e0015290565b600082198211156200027a576200027a620002a1565b500190565b60008160001904831182151516156200029c576200029c620002a1565b500290565b634e487b7160e01b600052601160045260246000fd5b61143080620002c76000396000f3fe6080604052600436106100e85760003560e01c8063801f17bb1161008a578063d94a350511610059578063d94a35051461030c578063da984e8014610345578063dfbf53ae1461037d578063fcc53329146103c057600080fd5b8063801f17bb14610293578063b788e2f2146102a8578063c6eb7d4a146102c7578063cc689c55146102dc57600080fd5b80633910ca10116100c65780633910ca101461018f5780634684aaee146101a257806355d64d03146101c257806362ea82db1461021657600080fd5b80631b347aae146100ed578063378252f214610158578063378aa7011461016f575b600080fd5b3480156100f957600080fd5b506101026103d5565b60405161014f919081516001600160a01b03908116825260208084015190911690820152604080830151908201526060808301519082015260809182015115159181019190915260a00190565b60405180910390f35b34801561016457600080fd5b5061016d610584565b005b34801561017b57600080fd5b5060015460ff1660405161014f91906111fb565b61016d61019d3660046110c6565b61074d565b3480156101ae57600080fd5b5061016d6101bd3660046110de565b61095b565b3480156101ce57600080fd5b506001546002546003546004546005546006546102039560ff8116956101009091046001600160a01b03169490939092909187565b60405161014f979695949392919061120f565b34801561022257600080fd5b50610267610231366004611098565b6009602052600090815260409020805460018201546002830154600384015460049094015460ff93841694929391929091169085565b60408051951515865260208601949094529284019190915215156060830152608082015260a00161014f565b34801561029f57600080fd5b5061016d610bc6565b3480156102b457600080fd5b50600b545b60405190815260200161014f565b3480156102d357600080fd5b5061016d610cb8565b3480156102e857600080fd5b506007546001600160a01b03166000908152600a60205260409020600301546102b9565b34801561031857600080fd5b5061020360015460025460035460045460055460065460ff8616966101009096046001600160a01b031695565b34801561035157600080fd5b506103656103603660046110c6565b610d39565b6040516001600160a01b03909116815260200161014f565b34801561038957600080fd5b506007546008546103a1916001600160a01b03169082565b604080516001600160a01b03909316835260208301919091520161014f565b3480156103cc57600080fd5b5061016d610d63565b6040805160a08101825260008082526020820181905291810182905260608101829052608081019190915260028060015460ff16600381111561042857634e487b7160e01b600052602160045260246000fd5b1461044e5760405162461bcd60e51b8152600401610445906112d8565b60405180910390fd5b6006548042116104705760405162461bcd60e51b81526004016104459061132e565b6007546001600160a01b031633146104d95760405162461bcd60e51b815260206004820152602660248201527f596f7520617265206e6f74207468652077696e6e6572206f66207468652061756044820152656374696f6e2160d01b6064820152608401610445565b6001805460ff191660031790556040805133815242602082015281517f7ed3e08f4e01cb0fc3643e34bcfd45247dec68ed4414209bda9f5e5eab13d0fd929181900390910190a1336000908152600a6020908152604091829020825160a08101845281546001600160a01b039081168252600183015416928101929092526002810154928201929092526003820154606082015260049091015460ff16151560808201529250505090565b6006548042116105a65760405162461bcd60e51b81526004016104459061132e565b60018060015460ff1660038111156105ce57634e487b7160e01b600052602160045260246000fd5b146105eb5760405162461bcd60e51b8152600401610445906112d8565b6000805b600b5481101561066e5760096000600b838154811061061e57634e487b7160e01b600052603260045260246000fd5b60009182526020808320909101546001600160a01b0316835282019290925260400190206003015460ff161561065c5761065960018361137c565b91505b80610666816113b3565b9150506105ef565b50806106f757600180546003919060ff191681835b0217905550604080518181526019918101919091527f4f70656e20726f756e642c206e6f2076616c696420626964730000000000000060608201524260208201527fe73a313df79df374a265d1ae8069419631a184236f3d97d468b9c2e5505b4e99906080015b60405180910390a1505050565b6001805460ff191660029081179091557f3dbdd4835dda2d2ea64f4793b53cbfa0bd395cc2bdb266568ccfedbf2f9fde4b90426040516107389291906112ff565b60405180910390a1610748610ea7565b505050565b60008060015460ff16600381111561077557634e487b7160e01b600052602160045260246000fd5b146107925760405162461bcd60e51b8152600401610445906112d8565b6005548042106107e05760405162461bcd60e51b815260206004820152601960248201527843616e6e6f742062696420616674657220646561646c696e6560381b6044820152606401610445565b6004543410156108325760405162461bcd60e51b815260206004820152601860248201527f4465706f7369742076616c756520697320746f6f206c6f7700000000000000006044820152606401610445565b6040518060a00160405280600115158152602001848152602001600081526020016000151581526020013460016108699190611394565b90523360008181526009602090815260408083208551815490151560ff199182161782559286015160018083019190915591860151600282015560608601516003820180549115159190941617909255608090940151600490910155600b8054938401815590527f0175b7a638427703f0dbe7bb9bbf987a2551717b34e79f33b5b1008d1fa01db990910180546001600160a01b031916821790557fd0df58b5e1bbd8539e6d57b602994c90d1fa47191b8066f35d443005eaa4af1c903461092e4290565b604080516001600160a01b03909416845260208401929092529082015260600160405180910390a1505050565b60018060015460ff16600381111561098357634e487b7160e01b600052602160045260246000fd5b146109a05760405162461bcd60e51b8152600401610445906112d8565b6006548042106109ee5760405162461bcd60e51b815260206004820152601960248201527843616e6e6f742062696420616674657220646561646c696e6560381b6044820152606401610445565b3360009081526009602052604090205460ff16610a655760405162461bcd60e51b815260206004820152602f60248201527f54686973206163636f756e7420686173206e6f742062696464656e20696e207460448201526e1a19481a1a5919195b881c9bdd5b99608a1b6064820152608401610445565b600354841015610aae5760405162461bcd60e51b81526020600482015260146024820152734269642076616c756520697320746f6f206c6f7760601b6044820152606401610445565b60008484604051602001610ac39291906111b6565b60408051601f19818403018152918152815160209283012033600090815260099093529120600101549091508114610b495760405162461bcd60e51b8152602060048201526024808201527f4f70656e2062696420616e642068696464656e2062696420646f206e6f74206d6044820152630c2e8c6d60e31b6064820152608401610445565b33600081815260096020526040902060038101805460ff191660011790556002018690557f374421a8b171167e98a225a110041abe0534f837136644fa4d77c4bb9b8c2f599086610b974290565b604080516001600160a01b03909416845260208401929092529082015260600160405180910390a15050505050565b60008060015460ff166003811115610bee57634e487b7160e01b600052602160045260246000fd5b14610c0b5760405162461bcd60e51b8152600401610445906112d8565b600554804211610c2d5760405162461bcd60e51b81526004016104459061132e565b600b54610c7c576001805460ff191660031790557fe73a313df79df374a265d1ae8069419631a184236f3d97d468b9c2e5505b4e9942604051610c70919061129e565b60405180910390a15050565b6001805460ff1916811781556040517f3dbdd4835dda2d2ea64f4793b53cbfa0bd395cc2bdb266568ccfedbf2f9fde4b91610c70914290611256565b6000546001600160a01b03163314610d265760405162461bcd60e51b815260206004820152602b60248201527f596f7520617265206e6f7420616c6c6f77656420746f2064656c65746520746860448201526a69732061756374696f6e2160a81b6064820152608401610445565b60015461010090046001600160a01b0316ff5b600b8181548110610d4957600080fd5b6000918252602090912001546001600160a01b0316905081565b60018060015460ff166003811115610d8b57634e487b7160e01b600052602160045260246000fd5b14610da85760405162461bcd60e51b8152600401610445906112d8565b600654804211610dca5760405162461bcd60e51b81526004016104459061132e565b6000805b600b54811015610e4d5760096000600b8381548110610dfd57634e487b7160e01b600052603260045260246000fd5b60009182526020808320909101546001600160a01b0316835282019290925260400190206003015460ff1615610e3b57610e3860018361137c565b91505b80610e45816113b3565b915050610dce565b5080610e6657600180546003919060ff19168183610683565b6001805460ff191660029081179091557f3dbdd4835dda2d2ea64f4793b53cbfa0bd395cc2bdb266568ccfedbf2f9fde4b90426040516106ea9291906112ff565b60028060015460ff166003811115610ecf57634e487b7160e01b600052602160045260246000fd5b14610eec5760405162461bcd60e51b8152600401610445906112d8565b60008060005b600b54811015610f6e576000600b8281548110610f1f57634e487b7160e01b600052603260045260246000fd5b60009182526020808320909101546001600160a01b0316808352600990915260409091206002015490915083811115610f59578194508093505b50508080610f66906113b3565b915050610ef2565b506040805180820182526001600160a01b0384168082526020918201849052600780546001600160a01b0319168217905560088490558251908152908101839052428183015290517ff759f57bf4b808b6e91a1c291d1cc81e47f24aa62e8cf7f6cc30b23822e9ac2b9181900360600190a16040805160a0810182526001600160a01b0384168152306020820152600254918101919091526060810161101742626ebe0061137c565b8152600060209182018190526001600160a01b039485168152600a8252604090819020835181546001600160a01b031990811691881691909117825592840151600182018054909416961695909517909155810151600284015560608101516003840155608001516004909201805460ff1916921515929092179091555050565b6000602082840312156110a9578081fd5b81356001600160a01b03811681146110bf578182fd5b9392505050565b6000602082840312156110d7578081fd5b5035919050565b600080604083850312156110f0578081fd5b82359150602083013567ffffffffffffffff8082111561110e578283fd5b818501915085601f830112611121578283fd5b813581811115611133576111336113e4565b604051601f8201601f19908116603f0116810190838211818310171561115b5761115b6113e4565b81604052828152886020848701011115611173578586fd5b82602086016020830137856020848301015280955050505050509250929050565b600481106111b257634e487b7160e01b600052602160045260246000fd5b9052565b82815260008251815b818110156111db576020818601810151858301820152016111bf565b818111156111ec5782602083860101525b50919091016020019392505050565b602081016112098284611194565b92915050565b60e0810161121d828a611194565b6001600160a01b0397909716602082015260408101959095526060850193909352608084019190915260a083015260c090910152919050565b60608152600061128260608301600c81526b121a5919195b881c9bdd5b9960a21b602082015260400190565b90506112916020830185611194565b8260408301529392505050565b6040815260006112ca60408301600c81526b121a5919195b881c9bdd5b9960a21b602082015260400190565b905082602083015292915050565b6020808252600d908201526c496e76616c696420737461746560981b604082015260600190565b6060808252600a908201526913dc195b881c9bdd5b9960b21b608082015260a081016112916020830185611194565b6020808252602e908201527f43616e6e6f7420706572666f726d207468697320616374696f6e206265666f7260408201526d652074686520646561646c696e6560901b606082015260800190565b6000821982111561138f5761138f6113ce565b500190565b60008160001904831182151516156113ae576113ae6113ce565b500290565b60006000198214156113c7576113c76113ce565b5060010190565b634e487b7160e01b600052601160045260246000fd5b634e487b7160e01b600052604160045260246000fdfea2646970667358221220a7304826ca6440f553626584264bfa8c61c1117dab9249445339978ca991b37964736f6c63430008040033",
    "sourcePath": "/Users/cristinatorp/Dropbox/Min Mac (nox)/Documents/Skole/Masteroppgave/AuctionCode/auction/contracts/Auction.sol",
    "compiler": {
        "name": "solc",
        "version": "0.8.4+commit.c7e474f2"
    },
    "functionHashes": {
        "auctionInfo()": "55d64d03",
        "bidInHiddenRound(bytes32)": "3910ca10",
        "bidInOpenRound(uint256,string)": "4684aaee",
        "bids(address)": "62ea82db",
        "closeAuction()": "378252f2",
        "closeHiddenRound()": "801f17bb",
        "closeOpenRound()": "fcc53329",
        "deleteAuction()": "c6eb7d4a",
        "getAuctionInfo()": "d94a3505",
        "getCurrentState()": "378aa701",
        "getHiddenBidsLength()": "b788e2f2",
        "getTokenValidUntil()": "cc689c55",
        "hiddenBidsAddresses(uint256)": "da984e80",
        "retrieveToken()": "1b347aae",
        "winner()": "dfbf53ae"
    },
    "gasEstimates": {
        "creation": {
            "codeDepositCost": "1033600",
            "executionCost": "infinite",
            "totalCost": "infinite"
        },
        "external": {
            "auctionInfo()": "5389",
            "bidInHiddenRound(bytes32)": "133122",
            "bidInOpenRound(uint256,string)": "infinite",
            "bids(address)": "4647",
            "closeAuction()": "infinite",
            "closeHiddenRound()": "25774",
            "closeOpenRound()": "infinite",
            "deleteAuction()": "31874",
            "getAuctionInfo()": "5320",
            "getCurrentState()": "1135",
            "getHiddenBidsLength()": "1026",
            "getTokenValidUntil()": "1974",
            "hiddenBidsAddresses(uint256)": "2058",
            "retrieveToken()": "29491",
            "winner()": "1933"
        },
        "internal": {
            "currentTime()": "infinite",
            "findWinner()": "infinite",
            "transferBackDeposits()": "infinite",
            "transferHighestBidToSeller()": "infinite"
        }
    }
}