{
    "contractName": "TestAuction",
    "abi": [
        {
            "inputs": [
                {
                    "internalType": "address payable",
                    "name": "_seller",
                    "type": "address"
                },
                {
                    "internalType": "uint256",
                    "name": "_energyAmount",
                    "type": "uint256"
                },
                {
                    "internalType": "uint256",
                    "name": "_minBidValue",
                    "type": "uint256"
                },
                {
                    "internalType": "uint256",
                    "name": "_depositValue",
                    "type": "uint256"
                }
            ],
            "stateMutability": "nonpayable",
            "type": "constructor"
        },
        {
            "anonymous": false,
            "inputs": [
                {
                    "components": [
                        {
                            "internalType": "address",
                            "name": "accountAddress",
                            "type": "address"
                        },
                        {
                            "internalType": "uint256",
                            "name": "bid",
                            "type": "uint256"
                        }
                    ],
                    "indexed": false,
                    "internalType": "struct Auction.Winner",
                    "name": "winner",
                    "type": "tuple"
                },
                {
                    "indexed": false,
                    "internalType": "uint256",
                    "name": "contractBalance",
                    "type": "uint256"
                },
                {
                    "indexed": false,
                    "internalType": "uint256",
                    "name": "currentTime",
                    "type": "uint256"
                }
            ],
            "name": "AuctionEnded",
            "type": "event"
        },
        {
            "anonymous": false,
            "inputs": [
                {
                    "indexed": false,
                    "internalType": "string",
                    "name": "whichRound",
                    "type": "string"
                },
                {
                    "indexed": false,
                    "internalType": "uint256",
                    "name": "currentTime",
                    "type": "uint256"
                }
            ],
            "name": "ClosedAuctionWithNoBids",
            "type": "event"
        },
        {
            "anonymous": false,
            "inputs": [
                {
                    "indexed": false,
                    "internalType": "string",
                    "name": "whichRound",
                    "type": "string"
                },
                {
                    "indexed": false,
                    "internalType": "enum Auction.State",
                    "name": "state",
                    "type": "uint8"
                },
                {
                    "indexed": false,
                    "internalType": "uint256",
                    "name": "currentTime",
                    "type": "uint256"
                }
            ],
            "name": "ClosedRound",
            "type": "event"
        },
        {
            "anonymous": false,
            "inputs": [
                {
                    "components": [
                        {
                            "internalType": "enum Auction.State",
                            "name": "currentState",
                            "type": "uint8"
                        },
                        {
                            "internalType": "address payable",
                            "name": "seller",
                            "type": "address"
                        },
                        {
                            "internalType": "uint256",
                            "name": "energyAmount",
                            "type": "uint256"
                        },
                        {
                            "internalType": "uint256",
                            "name": "minBidValue",
                            "type": "uint256"
                        },
                        {
                            "internalType": "uint256",
                            "name": "depositValue",
                            "type": "uint256"
                        },
                        {
                            "internalType": "uint256",
                            "name": "hiddenBidsDeadline",
                            "type": "uint256"
                        },
                        {
                            "internalType": "uint256",
                            "name": "openBidsDeadline",
                            "type": "uint256"
                        }
                    ],
                    "indexed": false,
                    "internalType": "struct Auction.AuctionInfo",
                    "name": "auctionInfo",
                    "type": "tuple"
                },
                {
                    "indexed": false,
                    "internalType": "uint256",
                    "name": "currentTime",
                    "type": "uint256"
                }
            ],
            "name": "CreatedNewAuction",
            "type": "event"
        },
        {
            "anonymous": false,
            "inputs": [
                {
                    "components": [
                        {
                            "internalType": "address",
                            "name": "accountAddress",
                            "type": "address"
                        },
                        {
                            "internalType": "uint256",
                            "name": "bid",
                            "type": "uint256"
                        }
                    ],
                    "indexed": false,
                    "internalType": "struct Auction.Winner",
                    "name": "winner",
                    "type": "tuple"
                },
                {
                    "indexed": false,
                    "internalType": "uint256",
                    "name": "currentTime",
                    "type": "uint256"
                }
            ],
            "name": "FoundHighestBid",
            "type": "event"
        },
        {
            "anonymous": false,
            "inputs": [
                {
                    "indexed": false,
                    "internalType": "address",
                    "name": "bidder",
                    "type": "address"
                },
                {
                    "indexed": false,
                    "internalType": "uint256",
                    "name": "deposit",
                    "type": "uint256"
                },
                {
                    "indexed": false,
                    "internalType": "uint256",
                    "name": "currentTime",
                    "type": "uint256"
                }
            ],
            "name": "ReceivedHiddenBid",
            "type": "event"
        },
        {
            "anonymous": false,
            "inputs": [
                {
                    "indexed": false,
                    "internalType": "address",
                    "name": "bidder",
                    "type": "address"
                },
                {
                    "indexed": false,
                    "internalType": "uint256",
                    "name": "bid",
                    "type": "uint256"
                },
                {
                    "indexed": false,
                    "internalType": "uint256",
                    "name": "currentTime",
                    "type": "uint256"
                }
            ],
            "name": "ReceivedOpenBid",
            "type": "event"
        },
        {
            "anonymous": false,
            "inputs": [
                {
                    "indexed": false,
                    "internalType": "address",
                    "name": "retrievedBy",
                    "type": "address"
                },
                {
                    "indexed": false,
                    "internalType": "uint256",
                    "name": "currentTime",
                    "type": "uint256"
                }
            ],
            "name": "RetrievedToken",
            "type": "event"
        },
        {
            "anonymous": false,
            "inputs": [
                {
                    "indexed": false,
                    "internalType": "string",
                    "name": "context",
                    "type": "string"
                },
                {
                    "indexed": false,
                    "internalType": "address",
                    "name": "to",
                    "type": "address"
                },
                {
                    "indexed": false,
                    "internalType": "uint256",
                    "name": "value",
                    "type": "uint256"
                },
                {
                    "indexed": false,
                    "internalType": "uint256",
                    "name": "currentTime",
                    "type": "uint256"
                }
            ],
            "name": "TransferEvent",
            "type": "event"
        },
        {
            "inputs": [],
            "name": "auctionInfo",
            "outputs": [
                {
                    "internalType": "enum Auction.State",
                    "name": "currentState",
                    "type": "uint8"
                },
                {
                    "internalType": "address payable",
                    "name": "seller",
                    "type": "address"
                },
                {
                    "internalType": "uint256",
                    "name": "energyAmount",
                    "type": "uint256"
                },
                {
                    "internalType": "uint256",
                    "name": "minBidValue",
                    "type": "uint256"
                },
                {
                    "internalType": "uint256",
                    "name": "depositValue",
                    "type": "uint256"
                },
                {
                    "internalType": "uint256",
                    "name": "hiddenBidsDeadline",
                    "type": "uint256"
                },
                {
                    "internalType": "uint256",
                    "name": "openBidsDeadline",
                    "type": "uint256"
                }
            ],
            "stateMutability": "view",
            "type": "function"
        },
        {
            "inputs": [
                {
                    "internalType": "bytes32",
                    "name": "bid",
                    "type": "bytes32"
                }
            ],
            "name": "bidInHiddenRound",
            "outputs": [],
            "stateMutability": "payable",
            "type": "function"
        },
        {
            "inputs": [
                {
                    "internalType": "uint256",
                    "name": "openBid",
                    "type": "uint256"
                },
                {
                    "internalType": "string",
                    "name": "salt",
                    "type": "string"
                }
            ],
            "name": "bidInOpenRound",
            "outputs": [],
            "stateMutability": "nonpayable",
            "type": "function"
        },
        {
            "inputs": [
                {
                    "internalType": "address",
                    "name": "",
                    "type": "address"
                }
            ],
            "name": "bids",
            "outputs": [
                {
                    "internalType": "bool",
                    "name": "existsHiddenBid",
                    "type": "bool"
                },
                {
                    "internalType": "bytes32",
                    "name": "hiddenBid",
                    "type": "bytes32"
                },
                {
                    "internalType": "uint256",
                    "name": "openBid",
                    "type": "uint256"
                },
                {
                    "internalType": "bool",
                    "name": "isOpenBidValid",
                    "type": "bool"
                },
                {
                    "internalType": "uint256",
                    "name": "deposit",
                    "type": "uint256"
                }
            ],
            "stateMutability": "view",
            "type": "function"
        },
        {
            "inputs": [],
            "name": "closeAuction",
            "outputs": [],
            "stateMutability": "nonpayable",
            "type": "function"
        },
        {
            "inputs": [],
            "name": "closeHiddenRound",
            "outputs": [],
            "stateMutability": "nonpayable",
            "type": "function"
        },
        {
            "inputs": [],
            "name": "closeOpenRound",
            "outputs": [],
            "stateMutability": "nonpayable",
            "type": "function"
        },
        {
            "inputs": [],
            "name": "deleteAuction",
            "outputs": [],
            "stateMutability": "nonpayable",
            "type": "function"
        },
        {
            "inputs": [],
            "name": "getAuctionInfo",
            "outputs": [
                {
                    "internalType": "enum Auction.State",
                    "name": "",
                    "type": "uint8"
                },
                {
                    "internalType": "address",
                    "name": "",
                    "type": "address"
                },
                {
                    "internalType": "uint256",
                    "name": "",
                    "type": "uint256"
                },
                {
                    "internalType": "uint256",
                    "name": "",
                    "type": "uint256"
                },
                {
                    "internalType": "uint256",
                    "name": "",
                    "type": "uint256"
                },
                {
                    "internalType": "uint256",
                    "name": "",
                    "type": "uint256"
                },
                {
                    "internalType": "uint256",
                    "name": "",
                    "type": "uint256"
                }
            ],
            "stateMutability": "view",
            "type": "function"
        },
        {
            "inputs": [],
            "name": "getCurrentState",
            "outputs": [
                {
                    "internalType": "enum Auction.State",
                    "name": "",
                    "type": "uint8"
                }
            ],
            "stateMutability": "view",
            "type": "function"
        },
        {
            "inputs": [],
            "name": "getHiddenBidsLength",
            "outputs": [
                {
                    "internalType": "uint256",
                    "name": "",
                    "type": "uint256"
                }
            ],
            "stateMutability": "view",
            "type": "function"
        },
        {
            "inputs": [],
            "name": "getTokenValidUntil",
            "outputs": [
                {
                    "internalType": "uint256",
                    "name": "",
                    "type": "uint256"
                }
            ],
            "stateMutability": "view",
            "type": "function"
        },
        {
            "inputs": [
                {
                    "internalType": "uint256",
                    "name": "",
                    "type": "uint256"
                }
            ],
            "name": "hiddenBidsAddresses",
            "outputs": [
                {
                    "internalType": "address",
                    "name": "",
                    "type": "address"
                }
            ],
            "stateMutability": "view",
            "type": "function"
        },
        {
            "inputs": [],
            "name": "retrieveToken",
            "outputs": [
                {
                    "components": [
                        {
                            "internalType": "address",
                            "name": "winner",
                            "type": "address"
                        },
                        {
                            "internalType": "address",
                            "name": "auctionContract",
                            "type": "address"
                        },
                        {
                            "internalType": "uint256",
                            "name": "energyAmount",
                            "type": "uint256"
                        },
                        {
                            "internalType": "uint256",
                            "name": "validUntil",
                            "type": "uint256"
                        },
                        {
                            "internalType": "bool",
                            "name": "isSpent",
                            "type": "bool"
                        }
                    ],
                    "internalType": "struct Auction.Token",
                    "name": "",
                    "type": "tuple"
                }
            ],
            "stateMutability": "nonpayable",
            "type": "function"
        },
        {
            "inputs": [
                {
                    "internalType": "enum Auction.State",
                    "name": "newState",
                    "type": "uint8"
                }
            ],
            "name": "setCurrentState",
            "outputs": [],
            "stateMutability": "nonpayable",
            "type": "function"
        },
        {
            "inputs": [
                {
                    "internalType": "uint256",
                    "name": "newTime",
                    "type": "uint256"
                }
            ],
            "name": "setCurrentTime",
            "outputs": [],
            "stateMutability": "nonpayable",
            "type": "function"
        },
        {
            "inputs": [],
            "name": "testFindWinner",
            "outputs": [],
            "stateMutability": "nonpayable",
            "type": "function"
        },
        {
            "inputs": [],
            "name": "testTransferBackDeposits",
            "outputs": [],
            "stateMutability": "nonpayable",
            "type": "function"
        },
        {
            "inputs": [],
            "name": "testTransferHighestBidToSeller",
            "outputs": [],
            "stateMutability": "nonpayable",
            "type": "function"
        },
        {
            "inputs": [],
            "name": "winner",
            "outputs": [
                {
                    "internalType": "address",
                    "name": "accountAddress",
                    "type": "address"
                },
                {
                    "internalType": "uint256",
                    "name": "bid",
                    "type": "uint256"
                }
            ],
            "stateMutability": "view",
            "type": "function"
        }
    ],
    "bytecode": "60806040523480156200001157600080fd5b5060405162001e8d38038062001e8d8339810160408190526200003491620001b6565b600080546001600160a01b031916331781556040805160e0810182529182526001600160a01b0386166020830152810184905284908490849084906060810162000080846001620002a1565b815260200162000092836001620002a1565b8152602001620000a1600c5490565b620000b0906201518062000286565b8152602001620000bf600c5490565b620000ce906202a30062000286565b9052805160018054909190829060ff1916818360038111156200010157634e487b7160e01b600052602160045260246000fd5b0217905550602082015181546001600160a01b0390911661010002610100600160a81b03199091161781556040820151600180830191909155606083015160028301556080830151600383015560a0830151600483015560c0909201516005909101557fc932bfe1d2a8c99fe45058b82a3d6b37508c1a1eef86e5447bd1588121ab41759062000190600c5490565b604051620001a092919062000224565b60405180910390a15050505050505050620002d9565b60008060008060808587031215620001cc578384fd5b84516001600160a01b0381168114620001e3578485fd5b60208601516040870151606090970151919890975090945092505050565b600481106200022057634e487b7160e01b600052602160045260246000fd5b9052565b82546101008201906200023b8360ff831662000201565b60081c6001600160a01b03166020830152600184015460408301526002840154606083015260038401546080830152600484015460a083015260059093015460c082015260e0015290565b600082198211156200029c576200029c620002c3565b500190565b6000816000190483118215151615620002be57620002be620002c3565b500290565b634e487b7160e01b600052601160045260246000fd5b611ba480620002e96000396000f3fe60806040526004361061011f5760003560e01c80636db595e1116100a0578063cc689c5511610064578063cc689c5514610392578063d94a3505146103c2578063da984e80146103fb578063dfbf53ae14610433578063fcc533291461047657600080fd5b80636db595e11461031f578063801f17bb14610334578063b668776814610349578063b788e2f21461035e578063c6eb7d4a1461037d57600080fd5b80633910ca10116100e75780633910ca10146101fb5780633e0869f51461020e5780634684aaee1461022e57806355d64d031461024e57806362ea82db146102a257600080fd5b8063198b5d16146101245780631b347aae1461013b57806322f8e566146101a6578063378252f2146101c6578063378aa701146101db575b600080fd5b34801561013057600080fd5b5061013961048b565b005b34801561014757600080fd5b50610150610495565b60405161019d919081516001600160a01b03908116825260208084015190911690820152604080830151908201526060808301519082015260809182015115159181019190915260a00190565b60405180910390f35b3480156101b257600080fd5b506101396101c136600461172e565b600c55565b3480156101d257600080fd5b50610139610650565b3480156101e757600080fd5b5060015460ff1660405161019d9190611863565b61013961020936600461172e565b610833565b34801561021a57600080fd5b50610139610229366004611746565b610a4b565b34801561023a57600080fd5b50610139610249366004611765565b610a7f565b34801561025a57600080fd5b5060015460025460035460045460055460065461028f9560ff8116956101009091046001600160a01b03169490939092909187565b60405161019d9796959493929190611877565b3480156102ae57600080fd5b506102f36102bd366004611700565b6009602052600090815260409020805460018201546002830154600384015460049094015460ff93841694929391929091169085565b60408051951515865260208601949094529284019190915215156060830152608082015260a00161019d565b34801561032b57600080fd5b50610139610cf5565b34801561034057600080fd5b50610139610cfd565b34801561035557600080fd5b50610139610e01565b34801561036a57600080fd5b50600b545b60405190815260200161019d565b34801561038957600080fd5b50610139610e09565b34801561039e57600080fd5b506007546001600160a01b03166000908152600a602052604090206003015461036f565b3480156103ce57600080fd5b5061028f60015460025460035460045460055460065460ff8616966101009096046001600160a01b031695565b34801561040757600080fd5b5061041b61041636600461172e565b610e8a565b6040516001600160a01b03909116815260200161019d565b34801561043f57600080fd5b50600754600854610457916001600160a01b03169082565b604080516001600160a01b03909316835260208301919091520161019d565b34801561048257600080fd5b50610139610eb4565b610493611003565b565b6040805160a08101825260008082526020820181905291810182905260608101829052608081019190915260028060015460ff1660038111156104e857634e487b7160e01b600052602160045260246000fd5b1461050e5760405162461bcd60e51b815260040161050590611990565b60405180910390fd5b6006548061051b600c5490565b116105385760405162461bcd60e51b8152600401610505906119e6565b6007546001600160a01b031633146105a15760405162461bcd60e51b815260206004820152602660248201527f596f7520617265206e6f74207468652077696e6e6572206f66207468652061756044820152656374696f6e2160d01b6064820152608401610505565b6001805460ff19166003179055600c5460408051338152602081019290925280517f7ed3e08f4e01cb0fc3643e34bcfd45247dec68ed4414209bda9f5e5eab13d0fd9281900390910190a1336000908152600a6020908152604091829020825160a08101845281546001600160a01b039081168252600183015416928101929092526002810154928201929092526003820154606082015260049091015460ff16151560808201529250505090565b6006548061065d600c5490565b1161067a5760405162461bcd60e51b8152600401610505906119e6565b60018060015460ff1660038111156106a257634e487b7160e01b600052602160045260246000fd5b146106bf5760405162461bcd60e51b815260040161050590611990565b6000805b600b548110156107425760096000600b83815481106106f257634e487b7160e01b600052603260045260246000fd5b60009182526020808320909101546001600160a01b0316835282019290925260400190206003015460ff16156107305761072d600183611a54565b91505b8061073a81611ad2565b9150506106c3565b50806107da57600180546003919060ff191681835b02179055507fe73a313df79df374a265d1ae8069419631a184236f3d97d468b9c2e5505b4e99610786600c5490565b6040516107cd919060408082526019908201527f4f70656e20726f756e642c206e6f2076616c69642062696473000000000000006060820152602081019190915260800190565b60405180910390a1505050565b6001805460ff19166002908117909155600c547f3dbdd4835dda2d2ea64f4793b53cbfa0bd395cc2bdb266568ccfedbf2f9fde4b919060405161081e9291906119b7565b60405180910390a161082e611003565b505050565b60008060015460ff16600381111561085b57634e487b7160e01b600052602160045260246000fd5b146108785760405162461bcd60e51b815260040161050590611990565b60055480610885600c5490565b106108ce5760405162461bcd60e51b815260206004820152601960248201527843616e6e6f742062696420616674657220646561646c696e6560381b6044820152606401610505565b6004543410156109205760405162461bcd60e51b815260206004820152601860248201527f4465706f7369742076616c756520697320746f6f206c6f7700000000000000006044820152606401610505565b6040518060a00160405280600115158152602001848152602001600081526020016000151581526020013460016109579190611a6c565b90523360008181526009602090815260408083208551815490151560ff199182161782559286015160018083019190915591860151600282015560608601516003820180549115159190941617909255608090940151600490910155600b8054938401815590527f0175b7a638427703f0dbe7bb9bbf987a2551717b34e79f33b5b1008d1fa01db990910180546001600160a01b031916821790557fd0df58b5e1bbd8539e6d57b602994c90d1fa47191b8066f35d443005eaa4af1c9034610a1e600c5490565b604080516001600160a01b03909416845260208401929092529082015260600160405180910390a1505050565b6001805482919060ff191681836003811115610a7757634e487b7160e01b600052602160045260246000fd5b021790555050565b60018060015460ff166003811115610aa757634e487b7160e01b600052602160045260246000fd5b14610ac45760405162461bcd60e51b815260040161050590611990565b60065480610ad1600c5490565b10610b1a5760405162461bcd60e51b815260206004820152601960248201527843616e6e6f742062696420616674657220646561646c696e6560381b6044820152606401610505565b3360009081526009602052604090205460ff16610b915760405162461bcd60e51b815260206004820152602f60248201527f54686973206163636f756e7420686173206e6f742062696464656e20696e207460448201526e1a19481a1a5919195b881c9bdd5b99608a1b6064820152608401610505565b600354841015610bda5760405162461bcd60e51b81526020600482015260146024820152734269642076616c756520697320746f6f206c6f7760601b6044820152606401610505565b60008484604051602001610bef92919061183d565b60408051601f19818403018152918152815160209283012033600090815260099093529120600101549091508114610c755760405162461bcd60e51b8152602060048201526024808201527f4f70656e2062696420616e642068696464656e2062696420646f206e6f74206d6044820152630c2e8c6d60e31b6064820152608401610505565b33600081815260096020526040902060038101805460ff191660011790556002018690557f374421a8b171167e98a225a110041abe0534f837136644fa4d77c4bb9b8c2f599086610cc5600c5490565b604080516001600160a01b0390941684526020840192909252908201526060015b60405180910390a15050505050565b61049361120d565b60008060015460ff166003811115610d2557634e487b7160e01b600052602160045260246000fd5b14610d425760405162461bcd60e51b815260040161050590611990565b60055480610d4f600c5490565b11610d6c5760405162461bcd60e51b8152600401610505906119e6565b600b54610dbe576001805460ff19166003179055600c547fe73a313df79df374a265d1ae8069419631a184236f3d97d468b9c2e5505b4e9990604051610db29190611956565b60405180910390a15050565b6001805460ff191681178155600c546040517f3dbdd4835dda2d2ea64f4793b53cbfa0bd395cc2bdb266568ccfedbf2f9fde4b92610db292909161190e565b5050565b610493611499565b6000546001600160a01b03163314610e775760405162461bcd60e51b815260206004820152602b60248201527f596f7520617265206e6f7420616c6c6f77656420746f2064656c65746520746860448201526a69732061756374696f6e2160a81b6064820152608401610505565b60015461010090046001600160a01b0316ff5b600b8181548110610e9a57600080fd5b6000918252602090912001546001600160a01b0316905081565b60018060015460ff166003811115610edc57634e487b7160e01b600052602160045260246000fd5b14610ef95760405162461bcd60e51b815260040161050590611990565b60065480610f06600c5490565b11610f235760405162461bcd60e51b8152600401610505906119e6565b6000805b600b54811015610fa65760096000600b8381548110610f5657634e487b7160e01b600052603260045260246000fd5b60009182526020808320909101546001600160a01b0316835282019290925260400190206003015460ff1615610f9457610f91600183611a54565b91505b80610f9e81611ad2565b915050610f27565b5080610fbf57600180546003919060ff19168183610757565b6001805460ff19166002908117909155600c547f3dbdd4835dda2d2ea64f4793b53cbfa0bd395cc2bdb266568ccfedbf2f9fde4b91906040516107cd9291906119b7565b60028060015460ff16600381111561102b57634e487b7160e01b600052602160045260246000fd5b146110485760405162461bcd60e51b815260040161050590611990565b60008060005b600b548110156110ca576000600b828154811061107b57634e487b7160e01b600052603260045260246000fd5b60009182526020808320909101546001600160a01b03168083526009909152604090912060020154909150838111156110b5578194508093505b505080806110c290611ad2565b91505061104e565b50604080518082019091526001600160a01b0383168082526020909101829052600780546001600160a01b031916909117815560088290557ff759f57bf4b808b6e91a1c291d1cc81e47f24aa62e8cf7f6cc30b23822e9ac2b9061112d600c5490565b60405161113b929190611a34565b60405180910390a16040518060a00160405280836001600160a01b03168152602001306001600160a01b031681526020016001800154815260200161117f600c5490565b61118c90626ebe00611a54565b8152600060209182018190526001600160a01b039485168152600a8252604090819020835181546001600160a01b031990811691881691909117825592840151600182018054909416961695909517909155810151600284015560608101516003840155608001516004909201805460ff1916921515929092179091555050565b60028060015460ff16600381111561123557634e487b7160e01b600052602160045260246000fd5b146112525760405162461bcd60e51b815260040161050590611990565b6007546001600160a01b03166112c25760405162461bcd60e51b815260206004820152602f60248201527f4d7573742066696e6420612077696e6e6572206265666f72652073656e64696e60448201526e67206261636b206465706f7369747360881b6064820152608401610505565b60005b600b54811015610dfd576000600b82815481106112f257634e487b7160e01b600052603260045260246000fd5b60009182526020808320909101546001600160a01b031680835260098252604092839020835160a081018552815460ff9081161515825260018301549482019490945260028201549481019490945260038101549092161515606084018190526004909201546080840152925061136a575050611487565b6007546001600160a01b0383811691161480801561139057508160800151826040015110155b1561139d57505050611487565b6000816113ae5782608001516113c2565b826040015183608001516113c29190611a8b565b90507f7c4000a16d683bc6bd33d5882af0733a8a58704ed6a1fbaaa780a62b7af76d9584826113f0600c5490565b604080516080808252601f908201527f5472616e73666572206261636b206465706f73697420746f206269646465720060a08201526001600160a01b039094166020850152830191909152606082015260c00160405180910390a16040516001600160a01b0385169082156108fc029083906000818181858888f19350505050158015611481573d6000803e3d6000fd5b50505050505b8061149181611ad2565b9150506112c5565b60028060015460ff1660038111156114c157634e487b7160e01b600052602160045260246000fd5b146114de5760405162461bcd60e51b815260040161050590611990565b60085460015460408051808201909152601e81527f5472616e7366657220686967686573742062696420746f2073656c6c6572000060208201526004546101009092046001600160a01b031691831115611556576001600301549250604051806080016040528060558152602001611b1a6055913990505b7f7c4000a16d683bc6bd33d5882af0733a8a58704ed6a1fbaaa780a62b7af76d95818385611583600c5490565b60405161159394939291906118be565b60405180910390a16040516001600160a01b0383169084156108fc029085906000818181858888f193505050501580156115d1573d6000803e3d6000fd5b504780156116a4577f7c4000a16d683bc6bd33d5882af0733a8a58704ed6a1fbaaa780a62b7af76d958382611605600c5490565b6040805160808082526023908201527f5472616e7366657220636f6e74726163742062616c616e636520746f2073656c60a0820152623632b960e91b60c08201526001600160a01b039094166020850152830191909152606082015260e00160405180910390a16040516001600160a01b0384169082156108fc029083906000818181858888f193505050501580156116a2573d6000803e3d6000fd5b505b7ff775d775211952fb6b87f2d722159db37561b0bb5fe510a7f4f8e80731a583e86007476116d1600c5490565b6040805184546001600160a01b0316815260019094015460208501528301919091526060820152608001610ce6565b600060208284031215611711578081fd5b81356001600160a01b0381168114611727578182fd5b9392505050565b60006020828403121561173f578081fd5b5035919050565b600060208284031215611757578081fd5b813560048110611727578182fd5b60008060408385031215611777578081fd5b82359150602083013567ffffffffffffffff80821115611795578283fd5b818501915085601f8301126117a8578283fd5b8135818111156117ba576117ba611b03565b604051601f8201601f19908116603f011681019083821181831017156117e2576117e2611b03565b816040528281528860208487010111156117fa578586fd5b82602086016020830137856020848301015280955050505050509250929050565b6004811061183957634e487b7160e01b600052602160045260246000fd5b9052565b82815260008251611855816020850160208701611aa2565b919091016020019392505050565b60208101611871828461181b565b92915050565b60e08101611885828a61181b565b6001600160a01b0397909716602082015260408101959095526060850193909352608084019190915260a083015260c090910152919050565b60808152600085518060808401526118dd8160a0850160208a01611aa2565b6001600160a01b03959095166020830152506040810192909252606082015260a0601f909201601f19160101919050565b60608152600061193a60608301600c81526b121a5919195b881c9bdd5b9960a21b602082015260400190565b9050611949602083018561181b565b8260408301529392505050565b60408152600061198260408301600c81526b121a5919195b881c9bdd5b9960a21b602082015260400190565b905082602083015292915050565b6020808252600d908201526c496e76616c696420737461746560981b604082015260600190565b6060808252600a908201526913dc195b881c9bdd5b9960b21b608082015260a08101611949602083018561181b565b6020808252602e908201527f43616e6e6f7420706572666f726d207468697320616374696f6e206265666f7260408201526d652074686520646561646c696e6560901b606082015260800190565b82546001600160a01b031681526001830154602082015260608101611949565b60008219821115611a6757611a67611aed565b500190565b6000816000190483118215151615611a8657611a86611aed565b500290565b600082821015611a9d57611a9d611aed565b500390565b60005b83811015611abd578181015183820152602001611aa5565b83811115611acc576000848401525b50505050565b6000600019821415611ae657611ae6611aed565b5060010190565b634e487b7160e01b600052601160045260246000fd5b634e487b7160e01b600052604160045260246000fdfe5468652068696768657374206269642077617320686967686572207468616e20746865206465706f7369742076616c75652e205472616e7366657272696e6720746865206465706f73697420746f2073656c6c6572a264697066735822122039cd427a6cc6ab08cead1371672201927219e20f2d6518a8e97d7f6340f2169864736f6c63430008040033",
    "sourcePath": "/Users/cristinatorp/Dropbox/Min Mac (nox)/Documents/Skole/Masteroppgave/AuctionCode/auction/contracts/TestAuction.sol",
    "compiler": {
        "name": "solc",
        "version": "0.8.4+commit.c7e474f2"
    },
    "functionHashes": {
        "auctionInfo()": "55d64d03",
        "bidInHiddenRound(bytes32)": "3910ca10",
        "bidInOpenRound(uint256,string)": "4684aaee",
        "bids(address)": "62ea82db",
        "closeAuction()": "378252f2",
        "closeHiddenRound()": "801f17bb",
        "closeOpenRound()": "fcc53329",
        "deleteAuction()": "c6eb7d4a",
        "getAuctionInfo()": "d94a3505",
        "getCurrentState()": "378aa701",
        "getHiddenBidsLength()": "b788e2f2",
        "getTokenValidUntil()": "cc689c55",
        "hiddenBidsAddresses(uint256)": "da984e80",
        "retrieveToken()": "1b347aae",
        "setCurrentState(uint8)": "3e0869f5",
        "setCurrentTime(uint256)": "22f8e566",
        "testFindWinner()": "198b5d16",
        "testTransferBackDeposits()": "6db595e1",
        "testTransferHighestBidToSeller()": "b6687768",
        "winner()": "dfbf53ae"
    },
    "gasEstimates": {
        "creation": {
            "codeDepositCost": "1415200",
            "executionCost": "infinite",
            "totalCost": "infinite"
        },
        "external": {
            "auctionInfo()": "5411",
            "bidInHiddenRound(bytes32)": "134739",
            "bidInOpenRound(uint256,string)": "infinite",
            "bids(address)": "4669",
            "closeAuction()": "infinite",
            "closeHiddenRound()": "27416",
            "closeOpenRound()": "infinite",
            "deleteAuction()": "31918",
            "getAuctionInfo()": "5342",
            "getCurrentState()": "1179",
            "getHiddenBidsLength()": "1070",
            "getTokenValidUntil()": "1907",
            "hiddenBidsAddresses(uint256)": "2080",
            "retrieveToken()": "31136",
            "setCurrentState(uint8)": "21165",
            "setCurrentTime(uint256)": "20280",
            "testFindWinner()": "infinite",
            "testTransferBackDeposits()": "infinite",
            "testTransferHighestBidToSeller()": "infinite",
            "winner()": "1955"
        },
        "internal": {
            "currentTime()": "infinite"
        }
    }
}