{
  "contractName": "AuctionController",
  "abi": [
    {
      "inputs": [],
      "stateMutability": "nonpayable",
      "type": "constructor"
    },
    {
      "anonymous": false,
      "inputs": [
        {
          "indexed": false,
          "internalType": "address",
          "name": "auction",
          "type": "address"
        }
      ],
      "name": "AddedNewAuction",
      "type": "event"
    },
    {
      "anonymous": false,
      "inputs": [
        {
          "indexed": false,
          "internalType": "address",
          "name": "auction",
          "type": "address"
        }
      ],
      "name": "DeletedAuction",
      "type": "event"
    },
    {
      "inputs": [
        {
          "internalType": "address",
          "name": "",
          "type": "address"
        }
      ],
      "name": "sellerAddresses",
      "outputs": [
        {
          "internalType": "address",
          "name": "",
          "type": "address"
        }
      ],
      "stateMutability": "view",
      "type": "function",
      "constant": true
    },
    {
      "inputs": [
        {
          "internalType": "address payable",
          "name": "_seller",
          "type": "address"
        },
        {
          "internalType": "uint256",
          "name": "_energyAmount",
          "type": "uint256"
        },
        {
          "internalType": "uint256",
          "name": "_minBidValue",
          "type": "uint256"
        },
        {
          "internalType": "uint256",
          "name": "_depositValue",
          "type": "uint256"
        }
      ],
      "name": "deployNewAuction",
      "outputs": [],
      "stateMutability": "nonpayable",
      "type": "function"
    },
    {
      "inputs": [
        {
          "internalType": "address",
          "name": "auctionAddress",
          "type": "address"
        }
      ],
      "name": "deleteAuction",
      "outputs": [],
      "stateMutability": "nonpayable",
      "type": "function"
    }
  ],
  "bytecode": "0x608060405234801561001057600080fd5b50336000806101000a81548173ffffffffffffffffffffffffffffffffffffffff021916908373ffffffffffffffffffffffffffffffffffffffff160217905550614381806100606000396000f3fe60806040523480156200001157600080fd5b5060043610620000465760003560e01c806336965f0c146200004b578063c293424e146200006b578063d7302214146200008b575b600080fd5b62000069600480360381019062000063919062000726565b620000c1565b005b620000896004803603810190620000839190620006fa565b620001c2565b005b620000a96004803603810190620000a39190620006fa565b62000646565b604051620000b891906200086b565b60405180910390f35b600084848484604051620000d59062000679565b620000e4949392919062000888565b604051809103906000f08015801562000101573d6000803e3d6000fd5b50905084600160008373ffffffffffffffffffffffffffffffffffffffff1673ffffffffffffffffffffffffffffffffffffffff16815260200190815260200160002060006101000a81548173ffffffffffffffffffffffffffffffffffffffff021916908373ffffffffffffffffffffffffffffffffffffffff1602179055507f8e639806401dbf7654a5bc84e951af5c678e11cf357c18e387fe2b70544b9c5e81604051620001b391906200086b565b60405180910390a15050505050565b6000819050600160008373ffffffffffffffffffffffffffffffffffffffff1673ffffffffffffffffffffffffffffffffffffffff16815260200190815260200160002060009054906101000a900473ffffffffffffffffffffffffffffffffffffffff1673ffffffffffffffffffffffffffffffffffffffff163373ffffffffffffffffffffffffffffffffffffffff161480620002ac575060008054906101000a900473ffffffffffffffffffffffffffffffffffffffff1673ffffffffffffffffffffffffffffffffffffffff163373ffffffffffffffffffffffffffffffffffffffff16145b620002ee576040517f08c379a0000000000000000000000000000000000000000000000000000000008152600401620002e590620008d5565b60405180910390fd5b60008173ffffffffffffffffffffffffffffffffffffffff1663cc689c556040518163ffffffff1660e01b815260040160206040518083038186803b1580156200033757600080fd5b505afa1580156200034c573d6000803e3d6000fd5b505050506040513d601f19601f82011682018060405250810190620003729190620007be565b4211801562000403575060008273ffffffffffffffffffffffffffffffffffffffff1663cc689c556040518163ffffffff1660e01b815260040160206040518083038186803b158015620003c557600080fd5b505afa158015620003da573d6000803e3d6000fd5b505050506040513d601f19601f82011682018060405250810190620004009190620007be565b14155b905080620005445760038081111562000445577f4e487b7100000000000000000000000000000000000000000000000000000000600052602160045260246000fd5b8273ffffffffffffffffffffffffffffffffffffffff1663378aa7016040518163ffffffff1660e01b815260040160206040518083038186803b1580156200048c57600080fd5b505afa158015620004a1573d6000803e3d6000fd5b505050506040513d601f19601f82011682018060405250810190620004c7919062000792565b600381111562000500577f4e487b7100000000000000000000000000000000000000000000000000000000600052602160045260246000fd5b1462000543576040517f08c379a00000000000000000000000000000000000000000000000000000000081526004016200053a90620008f7565b60405180910390fd5b5b8173ffffffffffffffffffffffffffffffffffffffff1663c6eb7d4a6040518163ffffffff1660e01b8152600401600060405180830381600087803b1580156200058d57600080fd5b505af1158015620005a2573d6000803e3d6000fd5b50505050600160008473ffffffffffffffffffffffffffffffffffffffff1673ffffffffffffffffffffffffffffffffffffffff16815260200190815260200160002060006101000a81549073ffffffffffffffffffffffffffffffffffffffff02191690557f401471a47a290325f3b1e6894839a07d25d1466962ad262056eca0071b79e37e836040516200063991906200086b565b60405180910390a1505050565b60016020528060005260406000206000915054906101000a900473ffffffffffffffffffffffffffffffffffffffff1681565b6138ac8062000aa083390190565b600081359050620006988162000a40565b92915050565b600081359050620006af8162000a5a565b92915050565b600081519050620006c68162000a74565b92915050565b600081359050620006dd8162000a85565b92915050565b600081519050620006f48162000a85565b92915050565b6000602082840312156200070d57600080fd5b60006200071d8482850162000687565b91505092915050565b600080600080608085870312156200073d57600080fd5b60006200074d878288016200069e565b94505060206200076087828801620006cc565b93505060406200077387828801620006cc565b92505060606200078687828801620006cc565b91505092959194509250565b600060208284031215620007a557600080fd5b6000620007b584828501620006b5565b91505092915050565b600060208284031215620007d157600080fd5b6000620007e184828501620006e3565b91505092915050565b620007f5816200093e565b82525050565b62000806816200092a565b82525050565b60006200081b60328362000919565b915062000828826200097c565b604082019050919050565b60006200084260448362000919565b91506200084f82620009cb565b606082019050919050565b620008658162000972565b82525050565b6000602082019050620008826000830184620007fb565b92915050565b60006080820190506200089f6000830187620007ea565b620008ae60208301866200085a565b620008bd60408301856200085a565b620008cc60608301846200085a565b95945050505050565b60006020820190508181036000830152620008f0816200080c565b9050919050565b60006020820190508181036000830152620009128162000833565b9050919050565b600082825260208201905092915050565b6000620009378262000952565b9050919050565b60006200094b8262000952565b9050919050565b600073ffffffffffffffffffffffffffffffffffffffff82169050919050565b6000819050919050565b7f43616e206f6e6c792062652064656c657465642062792061646d696e206f722060008201527f7468652061756374696f6e2073656c6c65720000000000000000000000000000602082015250565b7f43616e6e6f742064656c6574652061756374696f6e206265666f72652074686560008201527f20746f6b656e206861732065787069726564206f72206265656e20726574726960208201527f6576656400000000000000000000000000000000000000000000000000000000604082015250565b62000a4b816200092a565b811462000a5757600080fd5b50565b62000a65816200093e565b811462000a7157600080fd5b50565b6004811062000a8257600080fd5b50565b62000a908162000972565b811462000a9c57600080fd5b5056fe60806040523480156200001157600080fd5b50604051620038ac380380620038ac833981810160405281019062000037919062000285565b6000429050336000806101000a81548173ffffffffffffffffffffffffffffffffffffffff021916908373ffffffffffffffffffffffffffffffffffffffff1602179055506040518060e0016040528060006003811115620000c2577f4e487b7100000000000000000000000000000000000000000000000000000000600052602160045260246000fd5b81526020018673ffffffffffffffffffffffffffffffffffffffff168152602001858152602001600185620000f89190620004b2565b81526020016001846200010c9190620004b2565b8152602001620151808362000122919062000455565b81526020016202a3008362000138919062000455565b815250600160008201518160000160006101000a81548160ff021916908360038111156200018f577f4e487b7100000000000000000000000000000000000000000000000000000000600052602160045260246000fd5b021790555060208201518160000160016101000a81548173ffffffffffffffffffffffffffffffffffffffff021916908373ffffffffffffffffffffffffffffffffffffffff16021790555060408201518160010155606082015181600201556080820151816003015560a0820151816004015560c082015181600501559050507fc932bfe1d2a8c99fe45058b82a3d6b37508c1a1eef86e5447bd1588121ab41756001826040516200024492919062000427565b60405180910390a15050505050620006ce565b60008151905062000268816200069a565b92915050565b6000815190506200027f81620006b4565b92915050565b600080600080608085870312156200029c57600080fd5b6000620002ac8782880162000257565b9450506020620002bf878288016200026e565b9350506040620002d2878288016200026e565b9250506060620002e5878288016200026e565b91505092959194509250565b620002fc816200054a565b82525050565b6200030d816200059d565b82525050565b60e0820160008083015490506200032a81620005b1565b62000339600086018262000302565b506200034581620005ed565b620003546020860182620002f1565b50600183015490506200036781620005cf565b62000376604086018262000405565b50600283015490506200038981620005cf565b62000398606086018262000405565b5060038301549050620003ab81620005cf565b620003ba608086018262000405565b5060048301549050620003cd81620005cf565b620003dc60a086018262000405565b5060058301549050620003ef81620005cf565b620003fe60c086018262000405565b5050505050565b620004108162000593565b82525050565b620004218162000593565b82525050565b6000610100820190506200043f600083018562000313565b6200044e60e083018462000416565b9392505050565b6000620004628262000593565b91506200046f8362000593565b9250827fffffffffffffffffffffffffffffffffffffffffffffffffffffffffffffffff03821115620004a757620004a66200060b565b5b828201905092915050565b6000620004bf8262000593565b9150620004cc8362000593565b9250817fffffffffffffffffffffffffffffffffffffffffffffffffffffffffffffffff04831182151516156200050857620005076200060b565b5b828202905092915050565b600073ffffffffffffffffffffffffffffffffffffffff82169050919050565b600060ff82169050919050565b6000819050919050565b6000620005578262000573565b9050919050565b60008190506200056e8262000683565b919050565b600073ffffffffffffffffffffffffffffffffffffffff82169050919050565b6000819050919050565b6000620005aa826200055e565b9050919050565b6000620005c8620005c28362000669565b62000533565b9050919050565b6000620005e6620005e08362000669565b62000540565b9050919050565b600062000604620005fe8362000676565b62000513565b9050919050565b7f4e487b7100000000000000000000000000000000000000000000000000000000600052601160045260246000fd5b7f4e487b7100000000000000000000000000000000000000000000000000000000600052602160045260246000fd5b60008160001c9050919050565b60008160081c9050919050565b600481106200069757620006966200063a565b5b50565b620006a5816200054a565b8114620006b157600080fd5b50565b620006bf8162000593565b8114620006cb57600080fd5b50565b6131ce80620006de6000396000f3fe6080604052600436106100a75760003560e01c806362ea82db1161006457806362ea82db1461018f578063801f17bb146101d0578063c6eb7d4a146101e7578063cc689c55146101fe578063da984e8014610229578063dfbf53ae14610266576100a7565b80631b347aae146100ac578063378252f2146100d7578063378aa701146100ee5780633910ca10146101195780634684aaee1461013557806355d64d031461015e575b600080fd5b3480156100b857600080fd5b506100c1610292565b6040516100ce91906128ec565b60405180910390f35b3480156100e357600080fd5b506100ec6105e3565b005b3480156100fa57600080fd5b50610103610925565b604051610110919061256e565b60405180910390f35b610133600480360381019061012e919061200e565b61093f565b005b34801561014157600080fd5b5061015c60048036038101906101579190612060565b610c12565b005b34801561016a57600080fd5b50610173610f8c565b6040516101869796959493929190612589565b60405180910390f35b34801561019b57600080fd5b506101b660048036038101906101b19190611fe5565b610fe9565b6040516101c795949392919061251b565b60405180910390f35b3480156101dc57600080fd5b506101e5611039565b005b3480156101f357600080fd5b506101fc611288565b005b34801561020a57600080fd5b50610213611354565b6040516102209190612967565b60405180910390f35b34801561023557600080fd5b50610250600480360381019061024b9190612037565b6113c3565b60405161025d91906124a0565b60405180910390f35b34801561027257600080fd5b5061027b611402565b6040516102899291906124bb565b60405180910390f35b61029a611ee3565b60028060038111156102d5577f4e487b7100000000000000000000000000000000000000000000000000000000600052602160045260246000fd5b600160000160009054906101000a900460ff166003811115610320577f4e487b7100000000000000000000000000000000000000000000000000000000600052602160045260246000fd5b14610360576040517f08c379a0000000000000000000000000000000000000000000000000000000008152600401610357906127a6565b60405180910390fd5b6001600501548042116103a8576040517f08c379a000000000000000000000000000000000000000000000000000000000815260040161039f906128cc565b60405180910390fd5b600760000160009054906101000a900473ffffffffffffffffffffffffffffffffffffffff1673ffffffffffffffffffffffffffffffffffffffff163373ffffffffffffffffffffffffffffffffffffffff161461043b576040517f08c379a0000000000000000000000000000000000000000000000000000000008152600401610432906127c6565b60405180910390fd5b6003600160000160006101000a81548160ff0219169083600381111561048a577f4e487b7100000000000000000000000000000000000000000000000000000000600052602160045260246000fd5b02179055507f7ed3e08f4e01cb0fc3643e34bcfd45247dec68ed4414209bda9f5e5eab13d0fd33426040516104c09291906124bb565b60405180910390a1600a60003373ffffffffffffffffffffffffffffffffffffffff1673ffffffffffffffffffffffffffffffffffffffff1681526020019081526020016000206040518060a00160405290816000820160009054906101000a900473ffffffffffffffffffffffffffffffffffffffff1673ffffffffffffffffffffffffffffffffffffffff1673ffffffffffffffffffffffffffffffffffffffff1681526020016001820160009054906101000a900473ffffffffffffffffffffffffffffffffffffffff1673ffffffffffffffffffffffffffffffffffffffff1673ffffffffffffffffffffffffffffffffffffffff16815260200160028201548152602001600382015481526020016004820154815250509250505090565b60016005015480421161062b576040517f08c379a0000000000000000000000000000000000000000000000000000000008152600401610622906128cc565b60405180910390fd5b6001806003811115610666577f4e487b7100000000000000000000000000000000000000000000000000000000600052602160045260246000fd5b600160000160009054906101000a900460ff1660038111156106b1577f4e487b7100000000000000000000000000000000000000000000000000000000600052602160045260246000fd5b146106f1576040517f08c379a00000000000000000000000000000000000000000000000000000000081526004016106e8906127a6565b60405180910390fd5b6000805b600b805490508110156107de5760096000600b8381548110610740577f4e487b7100000000000000000000000000000000000000000000000000000000600052603260045260246000fd5b9060005260206000200160009054906101000a900473ffffffffffffffffffffffffffffffffffffffff1673ffffffffffffffffffffffffffffffffffffffff1673ffffffffffffffffffffffffffffffffffffffff16815260200190815260200160002060030160009054906101000a900460ff16156107cb576001826107c891906129ff565b91505b80806107d690612c73565b9150506106f5565b506000811415610878576003600160000160006101000a81548160ff02191690836003811115610837577f4e487b7100000000000000000000000000000000000000000000000000000000600052602160045260246000fd5b02179055507fe73a313df79df374a265d1ae8069419631a184236f3d97d468b9c2e5505b4e994260405161086b91906126ee565b60405180910390a1610920565b6002600160000160006101000a81548160ff021916908360038111156108c7577f4e487b7100000000000000000000000000000000000000000000000000000000600052602160045260246000fd5b02179055507f3dbdd4835dda2d2ea64f4793b53cbfa0bd395cc2bdb266568ccfedbf2f9fde4b600160000160009054906101000a900460ff164260405161090f929190612850565b60405180910390a161091f611434565b5b505050565b6000600160000160009054906101000a900460ff16905090565b600080600381111561097a577f4e487b7100000000000000000000000000000000000000000000000000000000600052602160045260246000fd5b600160000160009054906101000a900460ff1660038111156109c5577f4e487b7100000000000000000000000000000000000000000000000000000000600052602160045260246000fd5b14610a05576040517f08c379a00000000000000000000000000000000000000000000000000000000081526004016109fc906127a6565b60405180910390fd5b600160040154804210610a4d576040517f08c379a0000000000000000000000000000000000000000000000000000000008152600401610a4490612644565b60405180910390fd5b600160030154341015610a95576040517f08c379a0000000000000000000000000000000000000000000000000000000008152600401610a8c906126ce565b60405180910390fd5b6040518060a0016040528060011515815260200184815260200160008152602001600015158152602001600134610acc9190612a55565b815250600960003373ffffffffffffffffffffffffffffffffffffffff1673ffffffffffffffffffffffffffffffffffffffff16815260200190815260200160002060008201518160000160006101000a81548160ff021916908315150217905550602082015181600101556040820151816002015560608201518160030160006101000a81548160ff02191690831515021790555060808201518160040155905050600b339080600181540180825580915050600190039060005260206000200160009091909190916101000a81548173ffffffffffffffffffffffffffffffffffffffff021916908373ffffffffffffffffffffffffffffffffffffffff1602179055507fd0df58b5e1bbd8539e6d57b602994c90d1fa47191b8066f35d443005eaa4af1c333442604051610c05939291906124e4565b60405180910390a1505050565b6001806003811115610c4d577f4e487b7100000000000000000000000000000000000000000000000000000000600052602160045260246000fd5b600160000160009054906101000a900460ff166003811115610c98577f4e487b7100000000000000000000000000000000000000000000000000000000600052602160045260246000fd5b14610cd8576040517f08c379a0000000000000000000000000000000000000000000000000000000008152600401610ccf906127a6565b60405180910390fd5b600160050154804210610d20576040517f08c379a0000000000000000000000000000000000000000000000000000000008152600401610d1790612644565b60405180910390fd5b600960003373ffffffffffffffffffffffffffffffffffffffff1673ffffffffffffffffffffffffffffffffffffffff16815260200190815260200160002060000160009054906101000a900460ff16610daf576040517f08c379a0000000000000000000000000000000000000000000000000000000008152600401610da69061271c565b60405180910390fd5b600160020154841015610df7576040517f08c379a0000000000000000000000000000000000000000000000000000000008152600401610dee90612830565b60405180910390fd5b60008484604051602001610e0c929190612478565b60405160208183030381529060405280519060200120905080600960003373ffffffffffffffffffffffffffffffffffffffff1673ffffffffffffffffffffffffffffffffffffffff1681526020019081526020016000206001015414610ea8576040517f08c379a0000000000000000000000000000000000000000000000000000000008152600401610e9f9061273c565b60405180910390fd5b6001600960003373ffffffffffffffffffffffffffffffffffffffff1673ffffffffffffffffffffffffffffffffffffffff16815260200190815260200160002060030160006101000a81548160ff02191690831515021790555084600960003373ffffffffffffffffffffffffffffffffffffffff1673ffffffffffffffffffffffffffffffffffffffff168152602001908152602001600020600201819055507f374421a8b171167e98a225a110041abe0534f837136644fa4d77c4bb9b8c2f59338642604051610f7d939291906124e4565b60405180910390a15050505050565b60018060000160009054906101000a900460ff16908060000160019054906101000a900473ffffffffffffffffffffffffffffffffffffffff16908060010154908060020154908060030154908060040154908060050154905087565b60096020528060005260406000206000915090508060000160009054906101000a900460ff16908060010154908060020154908060030160009054906101000a900460ff16908060040154905085565b6000806003811115611074577f4e487b7100000000000000000000000000000000000000000000000000000000600052602160045260246000fd5b600160000160009054906101000a900460ff1660038111156110bf577f4e487b7100000000000000000000000000000000000000000000000000000000600052602160045260246000fd5b146110ff576040517f08c379a00000000000000000000000000000000000000000000000000000000081526004016110f6906127a6565b60405180910390fd5b600160040154804211611147576040517f08c379a000000000000000000000000000000000000000000000000000000000815260040161113e906128cc565b60405180910390fd5b6000600b8054905014156111e5576003600160000160006101000a81548160ff021916908360038111156111a4577f4e487b7100000000000000000000000000000000000000000000000000000000600052602160045260246000fd5b02179055507fe73a313df79df374a265d1ae8069419631a184236f3d97d468b9c2e5505b4e99426040516111d891906126a0565b60405180910390a1611284565b60018060000160006101000a81548160ff02191690836003811115611233577f4e487b7100000000000000000000000000000000000000000000000000000000600052602160045260246000fd5b02179055507f3dbdd4835dda2d2ea64f4793b53cbfa0bd395cc2bdb266568ccfedbf2f9fde4b600160000160009054906101000a900460ff164260405161127b929190612664565b60405180910390a15b5050565b60008054906101000a900473ffffffffffffffffffffffffffffffffffffffff1673ffffffffffffffffffffffffffffffffffffffff163373ffffffffffffffffffffffffffffffffffffffff1614611316576040517f08c379a000000000000000000000000000000000000000000000000000000000815260040161130d906128ac565b60405180910390fd5b600160000160019054906101000a900473ffffffffffffffffffffffffffffffffffffffff1673ffffffffffffffffffffffffffffffffffffffff16ff5b6000600a6000600760000160009054906101000a900473ffffffffffffffffffffffffffffffffffffffff1673ffffffffffffffffffffffffffffffffffffffff1673ffffffffffffffffffffffffffffffffffffffff16815260200190815260200160002060040154905090565b600b81815481106113d357600080fd5b906000526020600020016000915054906101000a900473ffffffffffffffffffffffffffffffffffffffff1681565b60078060000160009054906101000a900473ffffffffffffffffffffffffffffffffffffffff16908060010154905082565b600280600381111561146f577f4e487b7100000000000000000000000000000000000000000000000000000000600052602160045260246000fd5b600160000160009054906101000a900460ff1660038111156114ba577f4e487b7100000000000000000000000000000000000000000000000000000000600052602160045260246000fd5b146114fa576040517f08c379a00000000000000000000000000000000000000000000000000000000081526004016114f1906127a6565b60405180910390fd5b60008060005b600b8054905081101561163c576000600b8281548110611549577f4e487b7100000000000000000000000000000000000000000000000000000000600052603260045260246000fd5b9060005260206000200160009054906101000a900473ffffffffffffffffffffffffffffffffffffffff169050600960008273ffffffffffffffffffffffffffffffffffffffff1673ffffffffffffffffffffffffffffffffffffffff16815260200190815260200160002060030160009054906101000a900460ff166115d05750611629565b6000600960008373ffffffffffffffffffffffffffffffffffffffff1673ffffffffffffffffffffffffffffffffffffffff16815260200190815260200160002060020154905083811115611626578194508093505b50505b808061163490612c73565b915050611500565b5060405180604001604052808373ffffffffffffffffffffffffffffffffffffffff16815260200182815250600760008201518160000160006101000a81548173ffffffffffffffffffffffffffffffffffffffff021916908373ffffffffffffffffffffffffffffffffffffffff160217905550602082015181600101559050507ff759f57bf4b808b6e91a1c291d1cc81e47f24aa62e8cf7f6cc30b23822e9ac2b6007426040516116f0929190612907565b60405180910390a16040518060a001604052808373ffffffffffffffffffffffffffffffffffffffff1681526020013073ffffffffffffffffffffffffffffffffffffffff16815260200160018001548152602001428152602001626ebe004261175a91906129ff565b815250600a60008473ffffffffffffffffffffffffffffffffffffffff1673ffffffffffffffffffffffffffffffffffffffff16815260200190815260200160002060008201518160000160006101000a81548173ffffffffffffffffffffffffffffffffffffffff021916908373ffffffffffffffffffffffffffffffffffffffff16021790555060208201518160010160006101000a81548173ffffffffffffffffffffffffffffffffffffffff021916908373ffffffffffffffffffffffffffffffffffffffff160217905550604082015181600201556060820151816003015560808201518160040155905050611853611858565b505050565b6002806003811115611893577f4e487b7100000000000000000000000000000000000000000000000000000000600052602160045260246000fd5b600160000160009054906101000a900460ff1660038111156118de577f4e487b7100000000000000000000000000000000000000000000000000000000600052602160045260246000fd5b1461191e576040517f08c379a0000000000000000000000000000000000000000000000000000000008152600401611915906127a6565b60405180910390fd5b600073ffffffffffffffffffffffffffffffffffffffff16600760000160009054906101000a900473ffffffffffffffffffffffffffffffffffffffff1673ffffffffffffffffffffffffffffffffffffffff1614156119b3576040517f08c379a00000000000000000000000000000000000000000000000000000000081526004016119aa9061288c565b60405180910390fd5b60005b600b80549050811015611c1a576000600b82815481106119ff577f4e487b7100000000000000000000000000000000000000000000000000000000600052603260045260246000fd5b9060005260206000200160009054906101000a900473ffffffffffffffffffffffffffffffffffffffff1690506000600960008373ffffffffffffffffffffffffffffffffffffffff1673ffffffffffffffffffffffffffffffffffffffff1681526020019081526020016000206040518060a00160405290816000820160009054906101000a900460ff1615151515815260200160018201548152602001600282015481526020016003820160009054906101000a900460ff1615151515815260200160048201548152505090508060600151611ade575050611c07565b6000600760000160009054906101000a900473ffffffffffffffffffffffffffffffffffffffff1673ffffffffffffffffffffffffffffffffffffffff168373ffffffffffffffffffffffffffffffffffffffff16149050808015611b4b57508160800151826040015110155b15611b5857505050611c07565b600081611b69578260800151611b7e565b82604001518360800151611b7d9190612aaf565b5b90507f7c4000a16d683bc6bd33d5882af0733a8a58704ed6a1fbaaa780a62b7af76d95848242604051611bb3939291906127e6565b60405180910390a18373ffffffffffffffffffffffffffffffffffffffff166108fc829081150290604051600060405180830381858888f19350505050158015611c01573d6000803e3d6000fd5b50505050505b8080611c1290612c73565b9150506119b6565b50611c23611c26565b50565b6002806003811115611c61577f4e487b7100000000000000000000000000000000000000000000000000000000600052602160045260246000fd5b600160000160009054906101000a900460ff166003811115611cac577f4e487b7100000000000000000000000000000000000000000000000000000000600052602160045260246000fd5b14611cec576040517f08c379a0000000000000000000000000000000000000000000000000000000008152600401611ce3906127a6565b60405180910390fd5b600060076001015490506000600160000160019054906101000a900473ffffffffffffffffffffffffffffffffffffffff16905060006040518060400160405280601e81526020017f5472616e7366657220686967686573742062696420746f2073656c6c657200008152509050600160030154831115611d8b5760016003015492506040518060800160405280605d815260200161313c605d913990505b7f7c4000a16d683bc6bd33d5882af0733a8a58704ed6a1fbaaa780a62b7af76d9581838542604051611dc094939291906125f8565b60405180910390a18173ffffffffffffffffffffffffffffffffffffffff166108fc849081150290604051600060405180830381858888f19350505050158015611e0e573d6000803e3d6000fd5b5060004790506000811115611ea0577f7c4000a16d683bc6bd33d5882af0733a8a58704ed6a1fbaaa780a62b7af76d95838242604051611e509392919061275c565b60405180910390a18273ffffffffffffffffffffffffffffffffffffffff166108fc829081150290604051600060405180830381858888f19350505050158015611e9e573d6000803e3d6000fd5b505b7ff775d775211952fb6b87f2d722159db37561b0bb5fe510a7f4f8e80731a583e860074742604051611ed493929190612930565b60405180910390a15050505050565b6040518060a00160405280600073ffffffffffffffffffffffffffffffffffffffff168152602001600073ffffffffffffffffffffffffffffffffffffffff1681526020016000815260200160008152602001600081525090565b6000611f51611f4c846129a7565b612982565b905082815260208101848484011115611f6957600080fd5b611f74848285612bcc565b509392505050565b600081359050611f8b816130f6565b92915050565b600081359050611fa08161310d565b92915050565b600082601f830112611fb757600080fd5b8135611fc7848260208601611f3e565b91505092915050565b600081359050611fdf81613124565b92915050565b600060208284031215611ff757600080fd5b600061200584828501611f7c565b91505092915050565b60006020828403121561202057600080fd5b600061202e84828501611f91565b91505092915050565b60006020828403121561204957600080fd5b600061205784828501611fd0565b91505092915050565b6000806040838503121561207357600080fd5b600061208185828601611fd0565b925050602083013567ffffffffffffffff81111561209e57600080fd5b6120aa85828601611fa6565b9150509250929050565b6120bd81612b84565b82525050565b6120cc81612b1f565b82525050565b6120db81612b0d565b82525050565b6120ea81612b0d565b82525050565b6120f981612b31565b82525050565b61210881612b3d565b82525050565b61211781612b96565b82525050565b6000612128826129d8565b61213281856129e3565b9350612142818560208601612bdb565b61214b81612d53565b840191505092915050565b6000612161826129d8565b61216b81856129f4565b935061217b818560208601612bdb565b80840191505092915050565b60006121946019836129e3565b915061219f82612d71565b602082019050919050565b60006121b7600c836129e3565b91506121c282612d9a565b602082019050919050565b60006121da6018836129e3565b91506121e582612dc3565b602082019050919050565b60006121fd6019836129e3565b915061220882612dec565b602082019050919050565b6000612220602f836129e3565b915061222b82612e15565b604082019050919050565b60006122436024836129e3565b915061224e82612e64565b604082019050919050565b60006122666023836129e3565b915061227182612eb3565b604082019050919050565b6000612289600d836129e3565b915061229482612f02565b602082019050919050565b60006122ac6026836129e3565b91506122b782612f2b565b604082019050919050565b60006122cf601f836129e3565b91506122da82612f7a565b602082019050919050565b60006122f26014836129e3565b91506122fd82612fa3565b602082019050919050565b6000612315600a836129e3565b915061232082612fcc565b602082019050919050565b6000612338602f836129e3565b915061234382612ff5565b604082019050919050565b600061235b602b836129e3565b915061236682613044565b604082019050919050565b600061237e602e836129e3565b915061238982613093565b604082019050919050565b60a0820160008201516123aa60008501826120d2565b5060208201516123bd60208501826120d2565b5060408201516123d06040850182612443565b5060608201516123e36060850182612443565b5060808201516123f66080850182612443565b50505050565b60408201600080830154905061241181612c0e565b61241e60008601826120d2565b506001830154905061242f81612c28565b61243c6020860182612443565b5050505050565b61244c81612b7a565b82525050565b61245b81612b7a565b82525050565b61247261246d82612b7a565b612cbc565b82525050565b60006124848285612461565b6020820191506124948284612156565b91508190509392505050565b60006020820190506124b560008301846120e1565b92915050565b60006040820190506124d060008301856120e1565b6124dd6020830184612452565b9392505050565b60006060820190506124f960008301866120e1565b6125066020830185612452565b6125136040830184612452565b949350505050565b600060a08201905061253060008301886120f0565b61253d60208301876120ff565b61254a6040830186612452565b61255760608301856120f0565b6125646080830184612452565b9695505050505050565b6000602082019050612583600083018461210e565b92915050565b600060e08201905061259e600083018a61210e565b6125ab60208301896120c3565b6125b86040830188612452565b6125c56060830187612452565b6125d26080830186612452565b6125df60a0830185612452565b6125ec60c0830184612452565b98975050505050505050565b60006080820190508181036000830152612612818761211d565b905061262160208301866120b4565b61262e6040830185612452565b61263b6060830184612452565b95945050505050565b6000602082019050818103600083015261265d81612187565b9050919050565b6000606082019050818103600083015261267d816121aa565b905061268c602083018561210e565b6126996040830184612452565b9392505050565b600060408201905081810360008301526126b9816121aa565b90506126c86020830184612452565b92915050565b600060208201905081810360008301526126e7816121cd565b9050919050565b60006040820190508181036000830152612707816121f0565b90506127166020830184612452565b92915050565b6000602082019050818103600083015261273581612213565b9050919050565b6000602082019050818103600083015261275581612236565b9050919050565b6000608082019050818103600083015261277581612259565b905061278460208301866120b4565b6127916040830185612452565b61279e6060830184612452565b949350505050565b600060208201905081810360008301526127bf8161227c565b9050919050565b600060208201905081810360008301526127df8161229f565b9050919050565b600060808201905081810360008301526127ff816122c2565b905061280e60208301866120b4565b61281b6040830185612452565b6128286060830184612452565b949350505050565b60006020820190508181036000830152612849816122e5565b9050919050565b6000606082019050818103600083015261286981612308565b9050612878602083018561210e565b6128856040830184612452565b9392505050565b600060208201905081810360008301526128a58161232b565b9050919050565b600060208201905081810360008301526128c58161234e565b9050919050565b600060208201905081810360008301526128e581612371565b9050919050565b600060a0820190506129016000830184612394565b92915050565b600060608201905061291c60008301856123fc565b6129296040830184612452565b9392505050565b600060808201905061294560008301866123fc565b6129526040830185612452565b61295f6060830184612452565b949350505050565b600060208201905061297c6000830184612452565b92915050565b600061298c61299d565b90506129988282612c42565b919050565b6000604051905090565b600067ffffffffffffffff8211156129c2576129c1612d24565b5b6129cb82612d53565b9050602081019050919050565b600081519050919050565b600082825260208201905092915050565b600081905092915050565b6000612a0a82612b7a565b9150612a1583612b7a565b9250827fffffffffffffffffffffffffffffffffffffffffffffffffffffffffffffffff03821115612a4a57612a49612cc6565b5b828201905092915050565b6000612a6082612b7a565b9150612a6b83612b7a565b9250817fffffffffffffffffffffffffffffffffffffffffffffffffffffffffffffffff0483118215151615612aa457612aa3612cc6565b5b828202905092915050565b6000612aba82612b7a565b9150612ac583612b7a565b925082821015612ad857612ad7612cc6565b5b828203905092915050565b600073ffffffffffffffffffffffffffffffffffffffff82169050919050565b6000819050919050565b6000612b1882612b5a565b9050919050565b6000612b2a82612b5a565b9050919050565b60008115159050919050565b6000819050919050565b6000819050612b55826130e2565b919050565b600073ffffffffffffffffffffffffffffffffffffffff82169050919050565b6000819050919050565b6000612b8f82612ba8565b9050919050565b6000612ba182612b47565b9050919050565b6000612bb382612bba565b9050919050565b6000612bc582612b5a565b9050919050565b82818337600083830152505050565b60005b83811015612bf9578082015181840152602081019050612bde565b83811115612c08576000848401525b50505050565b6000612c21612c1c83612d64565b612ae3565b9050919050565b6000612c3b612c3683612d64565b612b03565b9050919050565b612c4b82612d53565b810181811067ffffffffffffffff82111715612c6a57612c69612d24565b5b80604052505050565b6000612c7e82612b7a565b91507fffffffffffffffffffffffffffffffffffffffffffffffffffffffffffffffff821415612cb157612cb0612cc6565b5b600182019050919050565b6000819050919050565b7f4e487b7100000000000000000000000000000000000000000000000000000000600052601160045260246000fd5b7f4e487b7100000000000000000000000000000000000000000000000000000000600052602160045260246000fd5b7f4e487b7100000000000000000000000000000000000000000000000000000000600052604160045260246000fd5b6000601f19601f8301169050919050565b60008160001c9050919050565b7f43616e6e6f742062696420616674657220646561646c696e6500000000000000600082015250565b7f48696464656e20726f756e640000000000000000000000000000000000000000600082015250565b7f4465706f7369742076616c756520697320746f6f206c6f770000000000000000600082015250565b7f4f70656e20726f756e642c206e6f2076616c6964206269647300000000000000600082015250565b7f54686973206163636f756e7420686173206e6f742062696464656e20696e207460008201527f68652068696464656e20726f756e640000000000000000000000000000000000602082015250565b7f4f70656e2062696420616e642068696464656e2062696420646f206e6f74206d60008201527f6174636800000000000000000000000000000000000000000000000000000000602082015250565b7f5472616e7366657220636f6e74726163742062616c616e636520746f2073656c60008201527f6c65720000000000000000000000000000000000000000000000000000000000602082015250565b7f496e76616c696420737461746500000000000000000000000000000000000000600082015250565b7f596f7520617265206e6f74207468652077696e6e6572206f662074686520617560008201527f6374696f6e210000000000000000000000000000000000000000000000000000602082015250565b7f5472616e73666572206261636b206465706f73697420746f2062696464657200600082015250565b7f4269642076616c756520697320746f6f206c6f77000000000000000000000000600082015250565b7f4f70656e20726f756e6400000000000000000000000000000000000000000000600082015250565b7f4d7573742066696e6420612077696e6e6572206265666f72652073656e64696e60008201527f67206261636b206465706f736974730000000000000000000000000000000000602082015250565b7f596f7520617265206e6f7420616c6c6f77656420746f2064656c65746520746860008201527f69732061756374696f6e21000000000000000000000000000000000000000000602082015250565b7f43616e6e6f7420706572666f726d207468697320616374696f6e206265666f7260008201527f652074686520646561646c696e65000000000000000000000000000000000000602082015250565b600481106130f3576130f2612cf5565b5b50565b6130ff81612b0d565b811461310a57600080fd5b50565b61311681612b3d565b811461312157600080fd5b50565b61312d81612b7a565b811461313857600080fd5b5056fe5468652068696768657374206269642077617320686967686572207468616e20746865206465706f7369742076616c75652e205472616e7366657272696e6720746865206465706f73697420746f2073656c6c657220696e7374656164a26469706673582212202c640d908cfa142119137547fc550762ead6a41ab5e541c89d5b3778b4c88db764736f6c63430008010033a2646970667358221220ea45472e37b87c130cd9c9e134d5a39498ff3910e41847510ae2dfc47269ee8c64736f6c63430008010033",
  "immutableReferences": {},
  "source": "// SPDX-License-Identifier: MIT\npragma solidity ^0.8.1;\n\nimport \"./Auction.sol\";\n\ncontract AuctionController {\n    address private admin;\n    mapping(address => address) public sellerAddresses; // auction addr => seller addr\n\n    event AddedNewAuction(address auction);\n    event DeletedAuction(address auction);\n\n    constructor() {\n        admin = msg.sender;\n    }\n\n    function deployNewAuction(\n        address payable _seller, \n        uint _energyAmount, \n        uint _minBidValue,\n        uint _depositValue\n    ) public {\n        // Deploy new auction contract\n        Auction newAuction = new Auction(\n            _seller, \n            _energyAmount, \n            _minBidValue, \n            _depositValue\n        );\n        \n        // Save seller address\n        sellerAddresses[address(newAuction)] = _seller;\n        emit AddedNewAuction(address(newAuction));\n    }\n\n    /// Auction cannot be deleted until either:\n    ///     (1) Token has been retrieved\n    ///     (2) Token has expired\n    ///     (3) Auction has closed with no bids\n    /// Auction can only be deleted by admin or by the auction seller\n    function deleteAuction(address auctionAddress) public {\n        Auction auction = Auction(auctionAddress);\n\n        require(msg.sender == sellerAddresses[auctionAddress] || msg.sender == admin, \"Can only be deleted by admin or the auction seller\");\n        \n        bool tokenExpired = block.timestamp > auction.getTokenValidUntil() && auction.getTokenValidUntil() != 0;\n        if (!tokenExpired) {\n            require(auction.getCurrentState() == Auction.State.ReadyForDeletion, \"Cannot delete auction before the token has expired or been retrieved\");\n        }\n        \n        auction.deleteAuction();\n        delete sellerAddresses[auctionAddress];\n\n        emit DeletedAuction(auctionAddress);\n    }\n}",
  "sourcePath": "/Users/cristinatorp/Dropbox/Min Mac (nox)/Documents/Skole/Masteroppgave/AuctionCode/auction-prod/contracts/AuctionController.sol",
  "compiler": {
    "name": "solc",
    "version": "0.8.1+commit.df193b15.Emscripten.clang"
  },
  "schemaVersion": "3.3.4",
  "updatedAt": "2021-05-11T14:22:36.898Z",
  "networkType": "ethereum",
  "devdoc": {
    "kind": "dev",
    "methods": {},
    "version": 1
  },
  "userdoc": {
    "kind": "user",
    "methods": {
      "deleteAuction(address)": {
        "notice": "Auction cannot be deleted until either:     (1) Token has been retrieved     (2) Token has expired     (3) Auction has closed with no bids Auction can only be deleted by admin or by the auction seller"
      }
    },
    "version": 1
  }
}