{
  "contractName": "TestAuction",
  "abi": [
    {
      "inputs": [
        {
          "internalType": "address payable",
          "name": "_seller",
          "type": "address"
        },
        {
          "internalType": "uint256",
          "name": "_energyAmount",
          "type": "uint256"
        },
        {
          "internalType": "uint256",
          "name": "_minBidValue",
          "type": "uint256"
        },
        {
          "internalType": "uint256",
          "name": "_depositValue",
          "type": "uint256"
        },
        {
          "internalType": "uint256",
          "name": "_deadline",
          "type": "uint256"
        }
      ],
      "stateMutability": "nonpayable",
      "type": "constructor"
    },
    {
      "anonymous": false,
      "inputs": [
        {
          "indexed": false,
          "internalType": "address",
          "name": "winnerAddress",
          "type": "address"
        },
        {
          "indexed": false,
          "internalType": "uint256",
          "name": "highestBid",
          "type": "uint256"
        },
        {
          "indexed": false,
          "internalType": "uint256",
          "name": "contractBalance",
          "type": "uint256"
        },
        {
          "indexed": false,
          "internalType": "uint256",
          "name": "currentTime",
          "type": "uint256"
        }
      ],
      "name": "AuctionEnded",
      "type": "event"
    },
    {
      "anonymous": false,
      "inputs": [
        {
          "indexed": false,
          "internalType": "string",
          "name": "whichRound",
          "type": "string"
        },
        {
          "indexed": false,
          "internalType": "enum Auction.State",
          "name": "state",
          "type": "uint8"
        },
        {
          "indexed": false,
          "internalType": "uint256",
          "name": "currentTime",
          "type": "uint256"
        }
      ],
      "name": "ClosedRound",
      "type": "event"
    },
    {
      "anonymous": false,
      "inputs": [
        {
          "components": [
            {
              "internalType": "enum Auction.State",
              "name": "currentState",
              "type": "uint8"
            },
            {
              "internalType": "address payable",
              "name": "seller",
              "type": "address"
            },
            {
              "internalType": "uint256",
              "name": "energyAmount",
              "type": "uint256"
            },
            {
              "internalType": "uint256",
              "name": "minBidValue",
              "type": "uint256"
            },
            {
              "internalType": "uint256",
              "name": "depositValue",
              "type": "uint256"
            },
            {
              "internalType": "uint256",
              "name": "hiddenBidsDeadline",
              "type": "uint256"
            },
            {
              "internalType": "uint256",
              "name": "openBidsDeadline",
              "type": "uint256"
            },
            {
              "internalType": "uint256",
              "name": "tokenValidUntil",
              "type": "uint256"
            }
          ],
          "indexed": false,
          "internalType": "struct Auction.AuctionInfo",
          "name": "auctionInfo",
          "type": "tuple"
        },
        {
          "indexed": false,
          "internalType": "uint256",
          "name": "currentTime",
          "type": "uint256"
        }
      ],
      "name": "CreatedNewAuction",
      "type": "event"
    },
    {
      "anonymous": false,
      "inputs": [
        {
          "indexed": false,
          "internalType": "address",
          "name": "winnerAddress",
          "type": "address"
        },
        {
          "indexed": false,
          "internalType": "uint256",
          "name": "highestBid",
          "type": "uint256"
        },
        {
          "indexed": false,
          "internalType": "uint256",
          "name": "currentTime",
          "type": "uint256"
        }
      ],
      "name": "FoundHighestBid",
      "type": "event"
    },
    {
      "anonymous": false,
      "inputs": [
        {
          "indexed": false,
          "internalType": "address",
          "name": "bidder",
          "type": "address"
        },
        {
          "indexed": false,
          "internalType": "bytes32",
          "name": "hiddenBid",
          "type": "bytes32"
        },
        {
          "indexed": false,
          "internalType": "uint256",
          "name": "deposit",
          "type": "uint256"
        },
        {
          "indexed": false,
          "internalType": "uint256",
          "name": "contractBalance",
          "type": "uint256"
        },
        {
          "indexed": false,
          "internalType": "uint256",
          "name": "currentTime",
          "type": "uint256"
        }
      ],
      "name": "ReceivedHiddenBid",
      "type": "event"
    },
    {
      "anonymous": false,
      "inputs": [
        {
          "indexed": false,
          "internalType": "address",
          "name": "bidder",
          "type": "address"
        },
        {
          "indexed": false,
          "internalType": "uint256",
          "name": "bid",
          "type": "uint256"
        },
        {
          "indexed": false,
          "internalType": "uint256",
          "name": "currentTime",
          "type": "uint256"
        }
      ],
      "name": "ReceivedOpenBid",
      "type": "event"
    },
    {
      "anonymous": false,
      "inputs": [
        {
          "indexed": false,
          "internalType": "address",
          "name": "retrievedBy",
          "type": "address"
        },
        {
          "indexed": false,
          "internalType": "uint256",
          "name": "currentTime",
          "type": "uint256"
        }
      ],
      "name": "RetrievedToken",
      "type": "event"
    },
    {
      "anonymous": false,
      "inputs": [
        {
          "indexed": false,
          "internalType": "string",
          "name": "context",
          "type": "string"
        },
        {
          "indexed": false,
          "internalType": "address",
          "name": "to",
          "type": "address"
        },
        {
          "indexed": false,
          "internalType": "uint256",
          "name": "value",
          "type": "uint256"
        },
        {
          "indexed": false,
          "internalType": "uint256",
          "name": "currentTime",
          "type": "uint256"
        }
      ],
      "name": "TransferEvent",
      "type": "event"
    },
    {
      "inputs": [],
      "name": "auctionInfo",
      "outputs": [
        {
          "internalType": "enum Auction.State",
          "name": "currentState",
          "type": "uint8"
        },
        {
          "internalType": "address payable",
          "name": "seller",
          "type": "address"
        },
        {
          "internalType": "uint256",
          "name": "energyAmount",
          "type": "uint256"
        },
        {
          "internalType": "uint256",
          "name": "minBidValue",
          "type": "uint256"
        },
        {
          "internalType": "uint256",
          "name": "depositValue",
          "type": "uint256"
        },
        {
          "internalType": "uint256",
          "name": "hiddenBidsDeadline",
          "type": "uint256"
        },
        {
          "internalType": "uint256",
          "name": "openBidsDeadline",
          "type": "uint256"
        },
        {
          "internalType": "uint256",
          "name": "tokenValidUntil",
          "type": "uint256"
        }
      ],
      "stateMutability": "view",
      "type": "function"
    },
    {
      "inputs": [
        {
          "internalType": "bytes32",
          "name": "bid",
          "type": "bytes32"
        }
      ],
      "name": "bidInHiddenRound",
      "outputs": [],
      "stateMutability": "payable",
      "type": "function"
    },
    {
      "inputs": [
        {
          "internalType": "uint256",
          "name": "openBid",
          "type": "uint256"
        }
      ],
      "name": "bidInOpenRound",
      "outputs": [],
      "stateMutability": "nonpayable",
      "type": "function"
    },
    {
      "inputs": [
        {
          "internalType": "address",
          "name": "",
          "type": "address"
        }
      ],
      "name": "bids",
      "outputs": [
        {
          "internalType": "bool",
          "name": "existsHiddenBid",
          "type": "bool"
        },
        {
          "internalType": "bytes32",
          "name": "hiddenBid",
          "type": "bytes32"
        },
        {
          "internalType": "uint256",
          "name": "openBid",
          "type": "uint256"
        },
        {
          "internalType": "bool",
          "name": "isOpenBidValid",
          "type": "bool"
        },
        {
          "internalType": "uint256",
          "name": "deposit",
          "type": "uint256"
        }
      ],
      "stateMutability": "view",
      "type": "function"
    },
    {
      "inputs": [],
      "name": "closeAuction",
      "outputs": [],
      "stateMutability": "nonpayable",
      "type": "function"
    },
    {
      "inputs": [],
      "name": "closeHiddenRound",
      "outputs": [],
      "stateMutability": "nonpayable",
      "type": "function"
    },
    {
      "inputs": [],
      "name": "closeOpenRound",
      "outputs": [],
      "stateMutability": "nonpayable",
      "type": "function"
    },
    {
      "inputs": [],
      "name": "deleteAuction",
      "outputs": [],
      "stateMutability": "nonpayable",
      "type": "function"
    },
    {
      "inputs": [],
      "name": "getAuctionInfo",
      "outputs": [
        {
          "internalType": "enum Auction.State",
          "name": "",
          "type": "uint8"
        },
        {
          "internalType": "address",
          "name": "",
          "type": "address"
        },
        {
          "internalType": "uint256",
          "name": "",
          "type": "uint256"
        },
        {
          "internalType": "uint256",
          "name": "",
          "type": "uint256"
        },
        {
          "internalType": "uint256",
          "name": "",
          "type": "uint256"
        },
        {
          "internalType": "uint256",
          "name": "",
          "type": "uint256"
        },
        {
          "internalType": "uint256",
          "name": "",
          "type": "uint256"
        },
        {
          "internalType": "uint256",
          "name": "",
          "type": "uint256"
        }
      ],
      "stateMutability": "view",
      "type": "function"
    },
    {
      "inputs": [],
      "name": "getCurrentState",
      "outputs": [
        {
          "internalType": "enum Auction.State",
          "name": "",
          "type": "uint8"
        }
      ],
      "stateMutability": "view",
      "type": "function"
    },
    {
      "inputs": [],
      "name": "getHiddenBidsLength",
      "outputs": [
        {
          "internalType": "uint256",
          "name": "",
          "type": "uint256"
        }
      ],
      "stateMutability": "view",
      "type": "function"
    },
    {
      "inputs": [],
      "name": "getOpenBidsLength",
      "outputs": [
        {
          "internalType": "uint256",
          "name": "",
          "type": "uint256"
        }
      ],
      "stateMutability": "view",
      "type": "function"
    },
    {
      "inputs": [],
      "name": "getTokenValidUntil",
      "outputs": [
        {
          "internalType": "uint256",
          "name": "",
          "type": "uint256"
        }
      ],
      "stateMutability": "view",
      "type": "function"
    },
    {
      "inputs": [
        {
          "internalType": "uint256",
          "name": "",
          "type": "uint256"
        }
      ],
      "name": "hiddenBidsAddresses",
      "outputs": [
        {
          "internalType": "address",
          "name": "",
          "type": "address"
        }
      ],
      "stateMutability": "view",
      "type": "function"
    },
    {
      "inputs": [
        {
          "internalType": "uint256",
          "name": "",
          "type": "uint256"
        }
      ],
      "name": "openBidsAddresses",
      "outputs": [
        {
          "internalType": "address",
          "name": "",
          "type": "address"
        }
      ],
      "stateMutability": "view",
      "type": "function"
    },
    {
      "inputs": [],
      "name": "retrieveToken",
      "outputs": [
        {
          "components": [
            {
              "internalType": "address",
              "name": "winner",
              "type": "address"
            },
            {
              "internalType": "address",
              "name": "auctionContract",
              "type": "address"
            },
            {
              "internalType": "uint256",
              "name": "energyAmount",
              "type": "uint256"
            },
            {
              "internalType": "uint256",
              "name": "createdAt",
              "type": "uint256"
            },
            {
              "internalType": "uint256",
              "name": "validUntil",
              "type": "uint256"
            },
            {
              "internalType": "bool",
              "name": "exists",
              "type": "bool"
            }
          ],
          "internalType": "struct Auction.Token",
          "name": "",
          "type": "tuple"
        }
      ],
      "stateMutability": "nonpayable",
      "type": "function"
    },
    {
      "inputs": [],
      "name": "winnerAddress",
      "outputs": [
        {
          "internalType": "address",
          "name": "",
          "type": "address"
        }
      ],
      "stateMutability": "view",
      "type": "function"
    },
    {
      "inputs": [],
      "name": "winnerBid",
      "outputs": [
        {
          "internalType": "uint256",
          "name": "",
          "type": "uint256"
        }
      ],
      "stateMutability": "view",
      "type": "function"
    },
    {
      "inputs": [
        {
          "internalType": "uint256",
          "name": "newTime",
          "type": "uint256"
        }
      ],
      "name": "setCurrentTime",
      "outputs": [],
      "stateMutability": "nonpayable",
      "type": "function"
    },
    {
      "inputs": [
        {
          "internalType": "enum Auction.State",
          "name": "newState",
          "type": "uint8"
        }
      ],
      "name": "setCurrentState",
      "outputs": [],
      "stateMutability": "nonpayable",
      "type": "function"
    },
    {
      "inputs": [],
      "name": "testFindWinner",
      "outputs": [],
      "stateMutability": "nonpayable",
      "type": "function"
    },
    {
      "inputs": [],
      "name": "testTransferBackDeposits",
      "outputs": [],
      "stateMutability": "nonpayable",
      "type": "function"
    },
    {
      "inputs": [],
      "name": "testTransferHighestBidToSeller",
      "outputs": [],
      "stateMutability": "nonpayable",
      "type": "function"
    }
  ],
  "bytecode": "0x60806040526105a06000556278614f6001553480156200001e57600080fd5b5060405162003bc538038062003bc5833981810160405281019062000044919062000401565b848484848433600260006101000a81548173ffffffffffffffffffffffffffffffffffffffff021916908373ffffffffffffffffffffffffffffffffffffffff16021790555060405180610100016040528060006003811115620000d1577f4e487b7100000000000000000000000000000000000000000000000000000000600052602160045260246000fd5b81526020018673ffffffffffffffffffffffffffffffffffffffff168152602001858152602001600185620001079190620006c2565b81526020016001846200011b9190620006c2565b815260200173__Utils_________________________________63529b380f846040518263ffffffff1660e01b815260040162000159919062000648565b60206040518083038186803b1580156200017257600080fd5b505af415801562000187573d6000803e3d6000fd5b505050506040513d601f19601f82011682018060405250810190620001ad919062000483565b620001bd620003c960201b60201c565b620001c9919062000665565b815260200173__Utils_________________________________63529b380f600285620001f79190620006c2565b6040518263ffffffff1660e01b815260040162000215919062000648565b60206040518083038186803b1580156200022e57600080fd5b505af415801562000243573d6000803e3d6000fd5b505050506040513d601f19601f8201168201806040525081019062000269919062000483565b62000279620003c960201b60201c565b62000285919062000665565b81526020016000815250600360008201518160000160006101000a81548160ff02191690836003811115620002e3577f4e487b7100000000000000000000000000000000000000000000000000000000600052602160045260246000fd5b021790555060208201518160000160016101000a81548173ffffffffffffffffffffffffffffffffffffffff021916908373ffffffffffffffffffffffffffffffffffffffff16021790555060408201518160010155606082015181600201556080820151816003015560a0820151816004015560c0820151816005015560e082015181600601559050507feee9160b53cd061a7cadf05d6831a55c29d096b9558ae43f0417fd7d69dd77a16003620003a1620003c960201b60201c565b604051620003b192919062000619565b60405180910390a150505050505050505050620008de565b6000601054905090565b600081519050620003e481620008aa565b92915050565b600081519050620003fb81620008c4565b92915050565b600080600080600060a086880312156200041a57600080fd5b60006200042a88828901620003d3565b95505060206200043d88828901620003ea565b94505060406200045088828901620003ea565b93505060606200046388828901620003ea565b92505060806200047688828901620003ea565b9150509295509295909350565b6000602082840312156200049657600080fd5b6000620004a684828501620003ea565b91505092915050565b620004ba816200075a565b82525050565b620004cb81620007ad565b82525050565b61010082016000808301549050620004e981620007c1565b620004f86000860182620004c0565b506200050481620007fd565b620005136020860182620004af565b50600183015490506200052681620007df565b620005356040860182620005e6565b50600283015490506200054881620007df565b620005576060860182620005e6565b50600383015490506200056a81620007df565b620005796080860182620005e6565b50600483015490506200058c81620007df565b6200059b60a0860182620005e6565b5060058301549050620005ae81620007df565b620005bd60c0860182620005e6565b5060068301549050620005d081620007df565b620005df60e0860182620005e6565b5050505050565b620005f181620007a3565b82525050565b6200060281620007a3565b82525050565b6200061381620007a3565b82525050565b600061012082019050620006316000830185620004d1565b62000641610100830184620005f7565b9392505050565b60006020820190506200065f600083018462000608565b92915050565b60006200067282620007a3565b91506200067f83620007a3565b9250827fffffffffffffffffffffffffffffffffffffffffffffffffffffffffffffffff03821115620006b757620006b66200081b565b5b828201905092915050565b6000620006cf82620007a3565b9150620006dc83620007a3565b9250817fffffffffffffffffffffffffffffffffffffffffffffffffffffffffffffffff04831182151516156200071857620007176200081b565b5b828202905092915050565b600073ffffffffffffffffffffffffffffffffffffffff82169050919050565b600060ff82169050919050565b6000819050919050565b6000620007678262000783565b9050919050565b60008190506200077e8262000893565b919050565b600073ffffffffffffffffffffffffffffffffffffffff82169050919050565b6000819050919050565b6000620007ba826200076e565b9050919050565b6000620007d8620007d28362000879565b62000743565b9050919050565b6000620007f6620007f08362000879565b62000750565b9050919050565b6000620008146200080e8362000886565b62000723565b9050919050565b7f4e487b7100000000000000000000000000000000000000000000000000000000600052601160045260246000fd5b7f4e487b7100000000000000000000000000000000000000000000000000000000600052602160045260246000fd5b60008160001c9050919050565b60008160081c9050919050565b60048110620008a757620008a66200084a565b5b50565b620008b5816200075a565b8114620008c157600080fd5b50565b620008cf81620007a3565b8114620008db57600080fd5b50565b6132d780620008ee6000396000f3fe6080604052600436106101405760003560e01c80636db595e1116100b6578063c930afed1161006f578063c930afed146103b0578063cc689c55146103ed578063d94a350514610418578063da984e801461044a578063ed7a4e0b14610487578063fcc53329146104b257610140565b80636db595e114610300578063801f17bb14610317578063aa46ded61461032e578063b668776814610357578063b788e2f21461036e578063c6eb7d4a1461039957610140565b8063378aa70111610108578063378aa701146101f25780633910ca101461021d5780633e0869f51461023957806355d64d031461026257806362ea82db1461029457806366a1d231146102d557610140565b806311631d0614610145578063198b5d16146101705780631b347aae1461018757806322f8e566146101b2578063378252f2146101db575b600080fd5b34801561015157600080fd5b5061015a6104c9565b6040516101679190612c96565b60405180910390f35b34801561017c57600080fd5b506101856104cf565b005b34801561019357600080fd5b5061019c6104d9565b6040516101a99190612c7b565b60405180910390f35b3480156101be57600080fd5b506101d960048036038101906101d49190612432565b61084f565b005b3480156101e757600080fd5b506101f0610859565b005b3480156101fe57600080fd5b50610207610afa565b60405161021491906128ee565b60405180910390f35b610237600480360381019061023291906123e0565b610b14565b005b34801561024557600080fd5b50610260600480360381019061025b9190612409565b610df8565b005b34801561026e57600080fd5b50610277610e4e565b60405161028b989796959493929190612909565b60405180910390f35b3480156102a057600080fd5b506102bb60048036038101906102b691906123b7565b610eb1565b6040516102cc95949392919061289b565b60405180910390f35b3480156102e157600080fd5b506102ea610f01565b6040516102f79190612c96565b60405180910390f35b34801561030c57600080fd5b50610315610f0e565b005b34801561032357600080fd5b5061032c610f18565b005b34801561033a57600080fd5b5061035560048036038101906103509190612432565b6110d7565b005b34801561036357600080fd5b5061036c611501565b005b34801561037a57600080fd5b5061038361150b565b6040516103909190612c96565b60405180910390f35b3480156103a557600080fd5b506103ae611518565b005b3480156103bc57600080fd5b506103d760048036038101906103d29190612432565b6115b0565b6040516103e49190612788565b60405180910390f35b3480156103f957600080fd5b506104026115ef565b60405161040f9190612c96565b60405180910390f35b34801561042457600080fd5b5061042d6115fc565b604051610441989796959493929190612987565b60405180910390f35b34801561045657600080fd5b50610471600480360381019061046c9190612432565b61167e565b60405161047e9190612788565b60405180910390f35b34801561049357600080fd5b5061049c6116bd565b6040516104a99190612788565b60405180910390f35b3480156104be57600080fd5b506104c76116e3565b005b600b5481565b6104d76118a2565b565b6104e16122ff565b600280600381111561051c577f4e487b7100000000000000000000000000000000000000000000000000000000600052602160045260246000fd5b600360000160009054906101000a900460ff166003811115610567577f4e487b7100000000000000000000000000000000000000000000000000000000600052602160045260246000fd5b146105a7576040517f08c379a000000000000000000000000000000000000000000000000000000000815260040161059e90612b75565b60405180910390fd5b600360050154806105b6611cd1565b116105f6576040517f08c379a00000000000000000000000000000000000000000000000000000000081526004016105ed90612acb565b60405180910390fd5b600a60009054906101000a900473ffffffffffffffffffffffffffffffffffffffff1673ffffffffffffffffffffffffffffffffffffffff163373ffffffffffffffffffffffffffffffffffffffff1614610686576040517f08c379a000000000000000000000000000000000000000000000000000000000815260040161067d90612b95565b60405180910390fd5b60038060000160006101000a81548160ff021916908360038111156106d4577f4e487b7100000000000000000000000000000000000000000000000000000000600052602160045260246000fd5b02179055507f7ed3e08f4e01cb0fc3643e34bcfd45247dec68ed4414209bda9f5e5eab13d0fd33610703611cd1565b6040516107119291906127f6565b60405180910390a1600d60003373ffffffffffffffffffffffffffffffffffffffff1673ffffffffffffffffffffffffffffffffffffffff1681526020019081526020016000206040518060c00160405290816000820160009054906101000a900473ffffffffffffffffffffffffffffffffffffffff1673ffffffffffffffffffffffffffffffffffffffff1673ffffffffffffffffffffffffffffffffffffffff1681526020016001820160009054906101000a900473ffffffffffffffffffffffffffffffffffffffff1673ffffffffffffffffffffffffffffffffffffffff1673ffffffffffffffffffffffffffffffffffffffff1681526020016002820154815260200160038201548152602001600482015481526020016005820160009054906101000a900460ff1615151515815250509250505090565b8060108190555050565b6001806003811115610894577f4e487b7100000000000000000000000000000000000000000000000000000000600052602160045260246000fd5b600360000160009054906101000a900460ff1660038111156108df577f4e487b7100000000000000000000000000000000000000000000000000000000600052602160045260246000fd5b1461091f576040517f08c379a000000000000000000000000000000000000000000000000000000000815260040161091690612b75565b60405180910390fd5b6003600501548061092e611cd1565b1161096e576040517f08c379a000000000000000000000000000000000000000000000000000000000815260040161096590612acb565b60405180910390fd5b6002600360000160006101000a81548160ff021916908360038111156109bd577f4e487b7100000000000000000000000000000000000000000000000000000000600052602160045260246000fd5b02179055507f3dbdd4835dda2d2ea64f4793b53cbfa0bd395cc2bdb266568ccfedbf2f9fde4b600360000160009054906101000a900460ff166109fe611cd1565b604051610a0c929190612c1f565b60405180910390a1610a1c6118a2565b610a24611cdb565b610a2c612080565b7f2f54d857cdbaa677948ee3e8b7f06f0064a2e99dd79ddab0373560d9bf5b647e600a60009054906101000a900473ffffffffffffffffffffffffffffffffffffffff16600c6000600a60009054906101000a900473ffffffffffffffffffffffffffffffffffffffff1673ffffffffffffffffffffffffffffffffffffffff1673ffffffffffffffffffffffffffffffffffffffff1681526020019081526020016000206002015447610ade611cd1565b604051610aee9493929190612856565b60405180910390a15050565b6000600360000160009054906101000a900460ff16905090565b6000806003811115610b4f577f4e487b7100000000000000000000000000000000000000000000000000000000600052602160045260246000fd5b600360000160009054906101000a900460ff166003811115610b9a577f4e487b7100000000000000000000000000000000000000000000000000000000600052602160045260246000fd5b14610bda576040517f08c379a0000000000000000000000000000000000000000000000000000000008152600401610bd190612b75565b60405180910390fd5b60036004015480610be9611cd1565b10610c29576040517f08c379a0000000000000000000000000000000000000000000000000000000008152600401610c2090612a05565b60405180910390fd5b6003800154341015610c70576040517f08c379a0000000000000000000000000000000000000000000000000000000008152600401610c6790612aab565b60405180910390fd5b6040518060a0016040528060011515815260200184815260200160008152602001600015158152602001600134610ca79190612d18565b815250600c60003373ffffffffffffffffffffffffffffffffffffffff1673ffffffffffffffffffffffffffffffffffffffff16815260200190815260200160002060008201518160000160006101000a81548160ff021916908315150217905550602082015181600101556040820151816002015560608201518160030160006101000a81548160ff02191690831515021790555060808201518160040155905050600e339080600181540180825580915050600190039060005260206000200160009091909190916101000a81548173ffffffffffffffffffffffffffffffffffffffff021916908373ffffffffffffffffffffffffffffffffffffffff1602179055507f0d6408c6d1bfcfcdb938ee8c6bb4dbbfa0081219c5cf09b83a0e29d55f6d531533843447610dda611cd1565b604051610deb9594939291906127a3565b60405180910390a1505050565b80600360000160006101000a81548160ff02191690836003811115610e46577f4e487b7100000000000000000000000000000000000000000000000000000000600052602160045260246000fd5b021790555050565b60038060000160009054906101000a900460ff16908060000160019054906101000a900473ffffffffffffffffffffffffffffffffffffffff16908060010154908060020154908060030154908060040154908060050154908060060154905088565b600c6020528060005260406000206000915090508060000160009054906101000a900460ff16908060010154908060020154908060030160009054906101000a900460ff16908060040154905085565b6000600f80549050905090565b610f16611cdb565b565b6000806003811115610f53577f4e487b7100000000000000000000000000000000000000000000000000000000600052602160045260246000fd5b600360000160009054906101000a900460ff166003811115610f9e577f4e487b7100000000000000000000000000000000000000000000000000000000600052602160045260246000fd5b14610fde576040517f08c379a0000000000000000000000000000000000000000000000000000000008152600401610fd590612b75565b60405180910390fd5b60036004015480610fed611cd1565b1161102d576040517f08c379a000000000000000000000000000000000000000000000000000000000815260040161102490612acb565b60405180910390fd5b6001600360000160006101000a81548160ff0219169083600381111561107c577f4e487b7100000000000000000000000000000000000000000000000000000000600052602160045260246000fd5b02179055507f3dbdd4835dda2d2ea64f4793b53cbfa0bd395cc2bdb266568ccfedbf2f9fde4b600360000160009054906101000a900460ff166110bd611cd1565b6040516110cb929190612a6f565b60405180910390a15050565b6001806003811115611112577f4e487b7100000000000000000000000000000000000000000000000000000000600052602160045260246000fd5b600360000160009054906101000a900460ff16600381111561115d577f4e487b7100000000000000000000000000000000000000000000000000000000600052602160045260246000fd5b1461119d576040517f08c379a000000000000000000000000000000000000000000000000000000000815260040161119490612b75565b60405180910390fd5b600360050154806111ac611cd1565b106111ec576040517f08c379a00000000000000000000000000000000000000000000000000000000081526004016111e390612a05565b60405180910390fd5b600c60003373ffffffffffffffffffffffffffffffffffffffff1673ffffffffffffffffffffffffffffffffffffffff16815260200190815260200160002060000160009054906101000a900460ff1661127b576040517f08c379a000000000000000000000000000000000000000000000000000000000815260040161127290612aeb565b60405180910390fd5b6003600201548310156112c3576040517f08c379a00000000000000000000000000000000000000000000000000000000081526004016112ba90612bff565b60405180910390fd5b6000836040516020016112d6919061276d565b60405160208183030381529060405280519060200120905080600c60003373ffffffffffffffffffffffffffffffffffffffff1673ffffffffffffffffffffffffffffffffffffffff1681526020019081526020016000206001015414611372576040517f08c379a000000000000000000000000000000000000000000000000000000000815260040161136990612b0b565b60405180910390fd5b83600c60003373ffffffffffffffffffffffffffffffffffffffff1673ffffffffffffffffffffffffffffffffffffffff16815260200190815260200160002050506001600c60003373ffffffffffffffffffffffffffffffffffffffff1673ffffffffffffffffffffffffffffffffffffffff16815260200190815260200160002060030160006101000a81548160ff02191690831515021790555083600c60003373ffffffffffffffffffffffffffffffffffffffff1673ffffffffffffffffffffffffffffffffffffffff16815260200190815260200160002060020181905550600f339080600181540180825580915050600190039060005260206000200160009091909190916101000a81548173ffffffffffffffffffffffffffffffffffffffff021916908373ffffffffffffffffffffffffffffffffffffffff1602179055507f374421a8b171167e98a225a110041abe0534f837136644fa4d77c4bb9b8c2f5933856114e4611cd1565b6040516114f39392919061281f565b60405180910390a150505050565b611509612080565b565b6000600e80549050905090565b600260009054906101000a900473ffffffffffffffffffffffffffffffffffffffff1673ffffffffffffffffffffffffffffffffffffffff163373ffffffffffffffffffffffffffffffffffffffff161461157257600080fd5b600360000160019054906101000a900473ffffffffffffffffffffffffffffffffffffffff1673ffffffffffffffffffffffffffffffffffffffff16ff5b600f81815481106115c057600080fd5b906000526020600020016000915054906101000a900473ffffffffffffffffffffffffffffffffffffffff1681565b6000600360060154905090565b600080600080600080600080600360000160009054906101000a900460ff16600360000160019054906101000a900473ffffffffffffffffffffffffffffffffffffffff166003600101546003600201546003800154600360040154600360050154600360060154975097509750975097509750975097509091929394959697565b600e818154811061168e57600080fd5b906000526020600020016000915054906101000a900473ffffffffffffffffffffffffffffffffffffffff1681565b600a60009054906101000a900473ffffffffffffffffffffffffffffffffffffffff1681565b600180600381111561171e577f4e487b7100000000000000000000000000000000000000000000000000000000600052602160045260246000fd5b600360000160009054906101000a900460ff166003811115611769577f4e487b7100000000000000000000000000000000000000000000000000000000600052602160045260246000fd5b146117a9576040517f08c379a00000000000000000000000000000000000000000000000000000000081526004016117a090612b75565b60405180910390fd5b600360050154806117b8611cd1565b116117f8576040517f08c379a00000000000000000000000000000000000000000000000000000000081526004016117ef90612acb565b60405180910390fd5b6002600360000160006101000a81548160ff02191690836003811115611847577f4e487b7100000000000000000000000000000000000000000000000000000000600052602160045260246000fd5b02179055507f3dbdd4835dda2d2ea64f4793b53cbfa0bd395cc2bdb266568ccfedbf2f9fde4b600360000160009054906101000a900460ff16611888611cd1565b604051611896929190612c1f565b60405180910390a15050565b60028060038111156118dd577f4e487b7100000000000000000000000000000000000000000000000000000000600052602160045260246000fd5b600360000160009054906101000a900460ff166003811115611928577f4e487b7100000000000000000000000000000000000000000000000000000000600052602160045260246000fd5b14611968576040517f08c379a000000000000000000000000000000000000000000000000000000000815260040161195f90612b75565b60405180910390fd5b60008060005b600f80549050811015611a4f576000600f82815481106119b7577f4e487b7100000000000000000000000000000000000000000000000000000000600052603260045260246000fd5b9060005260206000200160009054906101000a900473ffffffffffffffffffffffffffffffffffffffff1690506000600c60008373ffffffffffffffffffffffffffffffffffffffff1673ffffffffffffffffffffffffffffffffffffffff16815260200190815260200160002060020154905083811115611a3a578194508093505b50508080611a4790612e65565b91505061196e565b5081600a60006101000a81548173ffffffffffffffffffffffffffffffffffffffff021916908373ffffffffffffffffffffffffffffffffffffffff16021790555080600b819055507ff002fc7830b6bcafdad5b907dac3741c8c65925d7faefd09f011bd2b7355a85c600a60009054906101000a900473ffffffffffffffffffffffffffffffffffffffff16600b54611ae7611cd1565b604051611af69392919061281f565b60405180910390a16040518060c00160405280600a60009054906101000a900473ffffffffffffffffffffffffffffffffffffffff1673ffffffffffffffffffffffffffffffffffffffff1681526020013073ffffffffffffffffffffffffffffffffffffffff1681526020016003600101548152602001611b76611cd1565b8152602001600154611b86611cd1565b611b909190612cc2565b815260200160011515815250600d6000600a60009054906101000a900473ffffffffffffffffffffffffffffffffffffffff1673ffffffffffffffffffffffffffffffffffffffff1673ffffffffffffffffffffffffffffffffffffffff16815260200190815260200160002060008201518160000160006101000a81548173ffffffffffffffffffffffffffffffffffffffff021916908373ffffffffffffffffffffffffffffffffffffffff16021790555060208201518160010160006101000a81548173ffffffffffffffffffffffffffffffffffffffff021916908373ffffffffffffffffffffffffffffffffffffffff16021790555060408201518160020155606082015181600301556080820151816004015560a08201518160050160006101000a81548160ff021916908315150217905550905050505050565b6000601054905090565b6002806003811115611d16577f4e487b7100000000000000000000000000000000000000000000000000000000600052602160045260246000fd5b600360000160009054906101000a900460ff166003811115611d61577f4e487b7100000000000000000000000000000000000000000000000000000000600052602160045260246000fd5b14611da1576040517f08c379a0000000000000000000000000000000000000000000000000000000008152600401611d9890612b75565b60405180910390fd5b600073ffffffffffffffffffffffffffffffffffffffff16600a60009054906101000a900473ffffffffffffffffffffffffffffffffffffffff1673ffffffffffffffffffffffffffffffffffffffff161415611e33576040517f08c379a0000000000000000000000000000000000000000000000000000000008152600401611e2a90612c5b565b60405180910390fd5b60005b600e8054905081101561207c576000600e8281548110611e7f577f4e487b7100000000000000000000000000000000000000000000000000000000600052603260045260246000fd5b9060005260206000200160009054906101000a900473ffffffffffffffffffffffffffffffffffffffff1690506000600c60008373ffffffffffffffffffffffffffffffffffffffff1673ffffffffffffffffffffffffffffffffffffffff1681526020019081526020016000206040518060a00160405290816000820160009054906101000a900460ff1615151515815260200160018201548152602001600282015481526020016003820160009054906101000a900460ff1615151515815260200160048201548152505090508060600151611f5e575050612069565b6000600a60009054906101000a900473ffffffffffffffffffffffffffffffffffffffff1673ffffffffffffffffffffffffffffffffffffffff168373ffffffffffffffffffffffffffffffffffffffff16149050600081611fc4578260800151611fd9565b82604001518360800151611fd89190612d72565b5b90507f7c4000a16d683bc6bd33d5882af0733a8a58704ed6a1fbaaa780a62b7af76d958482612006611cd1565b60405161201593929190612bb5565b60405180910390a18373ffffffffffffffffffffffffffffffffffffffff166108fc829081150290604051600060405180830381858888f19350505050158015612063573d6000803e3d6000fd5b50505050505b808061207490612e65565b915050611e36565b5050565b60028060038111156120bb577f4e487b7100000000000000000000000000000000000000000000000000000000600052602160045260246000fd5b600360000160009054906101000a900460ff166003811115612106577f4e487b7100000000000000000000000000000000000000000000000000000000600052602160045260246000fd5b14612146576040517f08c379a000000000000000000000000000000000000000000000000000000000815260040161213d90612b75565b60405180910390fd5b6000600c6000600a60009054906101000a900473ffffffffffffffffffffffffffffffffffffffff1673ffffffffffffffffffffffffffffffffffffffff1673ffffffffffffffffffffffffffffffffffffffff1681526020019081526020016000206002015490506000600360000160019054906101000a900473ffffffffffffffffffffffffffffffffffffffff1690507f7c4000a16d683bc6bd33d5882af0733a8a58704ed6a1fbaaa780a62b7af76d958183612204611cd1565b60405161221393929190612a25565b60405180910390a18073ffffffffffffffffffffffffffffffffffffffff166108fc839081150290604051600060405180830381858888f19350505050158015612261573d6000803e3d6000fd5b506000479050828111156122f9577f7c4000a16d683bc6bd33d5882af0733a8a58704ed6a1fbaaa780a62b7af76d95828261229a611cd1565b6040516122a993929190612b2b565b60405180910390a18173ffffffffffffffffffffffffffffffffffffffff166108fc829081150290604051600060405180830381858888f193505050501580156122f7573d6000803e3d6000fd5b505b50505050565b6040518060c00160405280600073ffffffffffffffffffffffffffffffffffffffff168152602001600073ffffffffffffffffffffffffffffffffffffffff1681526020016000815260200160008152602001600081526020016000151581525090565b6000813590506123728161324c565b92915050565b60008135905061238781613263565b92915050565b60008135905061239c8161327a565b92915050565b6000813590506123b18161328a565b92915050565b6000602082840312156123c957600080fd5b60006123d784828501612363565b91505092915050565b6000602082840312156123f257600080fd5b600061240084828501612378565b91505092915050565b60006020828403121561241b57600080fd5b60006124298482850161238d565b91505092915050565b60006020828403121561244457600080fd5b6000612452848285016123a2565b91505092915050565b61246481612e1d565b82525050565b61247381612db8565b82525050565b61248281612da6565b82525050565b61249181612da6565b82525050565b6124a081612dca565b82525050565b6124af81612dca565b82525050565b6124be81612dd6565b82525050565b6124cd81612e2f565b82525050565b60006124e0601983612cb1565b91506124eb82612f16565b602082019050919050565b6000612503601e83612cb1565b915061250e82612f3f565b602082019050919050565b6000612526600c83612cb1565b915061253182612f68565b602082019050919050565b6000612549601883612cb1565b915061255482612f91565b602082019050919050565b600061256c602683612cb1565b915061257782612fba565b604082019050919050565b600061258f602f83612cb1565b915061259a82613009565b604082019050919050565b60006125b2602483612cb1565b91506125bd82613058565b604082019050919050565b60006125d5602383612cb1565b91506125e0826130a7565b604082019050919050565b60006125f8600d83612cb1565b9150612603826130f6565b602082019050919050565b600061261b602683612cb1565b91506126268261311f565b604082019050919050565b600061263e601f83612cb1565b91506126498261316e565b602082019050919050565b6000612661601483612cb1565b915061266c82613197565b602082019050919050565b6000612684600a83612cb1565b915061268f826131c0565b602082019050919050565b60006126a7602f83612cb1565b91506126b2826131e9565b604082019050919050565b60c0820160008201516126d36000850182612479565b5060208201516126e66020850182612479565b5060408201516126f96040850182612738565b50606082015161270c6060850182612738565b50608082015161271f6080850182612738565b5060a082015161273260a0850182612497565b50505050565b61274181612e13565b82525050565b61275081612e13565b82525050565b61276761276282612e13565b612eae565b82525050565b60006127798284612756565b60208201915081905092915050565b600060208201905061279d6000830184612488565b92915050565b600060a0820190506127b86000830188612488565b6127c560208301876124b5565b6127d26040830186612747565b6127df6060830185612747565b6127ec6080830184612747565b9695505050505050565b600060408201905061280b6000830185612488565b6128186020830184612747565b9392505050565b60006060820190506128346000830186612488565b6128416020830185612747565b61284e6040830184612747565b949350505050565b600060808201905061286b6000830187612488565b6128786020830186612747565b6128856040830185612747565b6128926060830184612747565b95945050505050565b600060a0820190506128b060008301886124a6565b6128bd60208301876124b5565b6128ca6040830186612747565b6128d760608301856124a6565b6128e46080830184612747565b9695505050505050565b600060208201905061290360008301846124c4565b92915050565b60006101008201905061291f600083018b6124c4565b61292c602083018a61246a565b6129396040830189612747565b6129466060830188612747565b6129536080830187612747565b61296060a0830186612747565b61296d60c0830185612747565b61297a60e0830184612747565b9998505050505050505050565b60006101008201905061299d600083018b6124c4565b6129aa602083018a612488565b6129b76040830189612747565b6129c46060830188612747565b6129d16080830187612747565b6129de60a0830186612747565b6129eb60c0830185612747565b6129f860e0830184612747565b9998505050505050505050565b60006020820190508181036000830152612a1e816124d3565b9050919050565b60006080820190508181036000830152612a3e816124f6565b9050612a4d602083018661245b565b612a5a6040830185612747565b612a676060830184612747565b949350505050565b60006060820190508181036000830152612a8881612519565b9050612a9760208301856124c4565b612aa46040830184612747565b9392505050565b60006020820190508181036000830152612ac48161253c565b9050919050565b60006020820190508181036000830152612ae48161255f565b9050919050565b60006020820190508181036000830152612b0481612582565b9050919050565b60006020820190508181036000830152612b24816125a5565b9050919050565b60006080820190508181036000830152612b44816125c8565b9050612b53602083018661245b565b612b606040830185612747565b612b6d6060830184612747565b949350505050565b60006020820190508181036000830152612b8e816125eb565b9050919050565b60006020820190508181036000830152612bae8161260e565b9050919050565b60006080820190508181036000830152612bce81612631565b9050612bdd602083018661245b565b612bea6040830185612747565b612bf76060830184612747565b949350505050565b60006020820190508181036000830152612c1881612654565b9050919050565b60006060820190508181036000830152612c3881612677565b9050612c4760208301856124c4565b612c546040830184612747565b9392505050565b60006020820190508181036000830152612c748161269a565b9050919050565b600060c082019050612c9060008301846126bd565b92915050565b6000602082019050612cab6000830184612747565b92915050565b600082825260208201905092915050565b6000612ccd82612e13565b9150612cd883612e13565b9250827fffffffffffffffffffffffffffffffffffffffffffffffffffffffffffffffff03821115612d0d57612d0c612eb8565b5b828201905092915050565b6000612d2382612e13565b9150612d2e83612e13565b9250817fffffffffffffffffffffffffffffffffffffffffffffffffffffffffffffffff0483118215151615612d6757612d66612eb8565b5b828202905092915050565b6000612d7d82612e13565b9150612d8883612e13565b925082821015612d9b57612d9a612eb8565b5b828203905092915050565b6000612db182612df3565b9050919050565b6000612dc382612df3565b9050919050565b60008115159050919050565b6000819050919050565b6000819050612dee82613238565b919050565b600073ffffffffffffffffffffffffffffffffffffffff82169050919050565b6000819050919050565b6000612e2882612e41565b9050919050565b6000612e3a82612de0565b9050919050565b6000612e4c82612e53565b9050919050565b6000612e5e82612df3565b9050919050565b6000612e7082612e13565b91507fffffffffffffffffffffffffffffffffffffffffffffffffffffffffffffffff821415612ea357612ea2612eb8565b5b600182019050919050565b6000819050919050565b7f4e487b7100000000000000000000000000000000000000000000000000000000600052601160045260246000fd5b7f4e487b7100000000000000000000000000000000000000000000000000000000600052602160045260246000fd5b7f43616e6e6f742062696420616674657220646561646c696e6500000000000000600082015250565b7f5472616e7366657220686967686573742062696420746f2073656c6c65720000600082015250565b7f48696464656e20726f756e640000000000000000000000000000000000000000600082015250565b7f4465706f7369742076616c756520697320746f6f206c6f770000000000000000600082015250565b7f43616e6e6f7420636c6f736520726f756e64206265666f72652074686520646560008201527f61646c696e650000000000000000000000000000000000000000000000000000602082015250565b7f54686973206163636f756e7420686173206e6f742062696464656e20696e207460008201527f68652068696464656e20726f756e640000000000000000000000000000000000602082015250565b7f4f70656e2062696420616e642068696464656e2062696420646f206e6f74206d60008201527f6174636800000000000000000000000000000000000000000000000000000000602082015250565b7f5472616e7366657220636f6e74726163742062616c616e636520746f2073656c60008201527f6c65720000000000000000000000000000000000000000000000000000000000602082015250565b7f496e76616c696420737461746500000000000000000000000000000000000000600082015250565b7f596f7520617265206e6f74207468652077696e6e6572206f662074686520617560008201527f6374696f6e210000000000000000000000000000000000000000000000000000602082015250565b7f5472616e73666572206261636b206465706f73697420746f2062696464657200600082015250565b7f4269642076616c756520697320746f6f206c6f77000000000000000000000000600082015250565b7f4f70656e20726f756e6400000000000000000000000000000000000000000000600082015250565b7f4d7573742066696e6420612077696e6e6572206265666f72652073656e64696e60008201527f67206261636b206465706f736974730000000000000000000000000000000000602082015250565b6004811061324957613248612ee7565b5b50565b61325581612da6565b811461326057600080fd5b50565b61326c81612dd6565b811461327757600080fd5b50565b6004811061328757600080fd5b50565b61329381612e13565b811461329e57600080fd5b5056fea2646970667358221220f4155dec67e1a17b3afb30a7790cd3987a3e29ea63edb027de101a3055f44a9464736f6c63430008010033",
  "immutableReferences": {},
  "source": "// SPDX-License-Identifier: MIT\npragma solidity ^0.8.1;\nimport \"./Auction.sol\";\n\ncontract TestAuction is Auction {\n    uint256 time;\n\n    constructor(\n        address payable _seller,\n        uint _energyAmount, \n        uint _minBidValue, \n        uint _depositValue,\n        uint _deadline\n    ) Auction (\n        _seller,\n        _energyAmount, \n        _minBidValue, \n        _depositValue,\n        _deadline\n    ) {}\n\n    function currentTime() internal view override returns (uint256) {\n        return time;\n    }\n\n    function setCurrentTime(uint256 newTime) public {\n        time = newTime;\n    }\n\n    function setCurrentState(State newState) public {\n        auctionInfo.currentState = newState;\n    }\n\n    function testFindWinner() public {\n        findWinner();\n    }\n\n    function testTransferBackDeposits() public {\n        transferBackDeposits();\n    }\n\n    function testTransferHighestBidToSeller() public {\n        transferHighestBidToSeller();\n    }\n}\n",
  "sourcePath": "/Users/cristinatorp/Dropbox/Min Mac (nox)/Documents/Skole/Masteroppgave/AuctionCode/auction/contracts/TestAuction.sol",
  "compiler": {
    "name": "solc",
    "version": "0.8.1+commit.df193b15.Emscripten.clang"
  },
  "schemaVersion": "3.3.4",
  "updatedAt": "2021-04-27T20:03:02.906Z",
  "networkType": "ethereum",
  "devdoc": {
    "kind": "dev",
    "methods": {},
    "version": 1
  },
  "userdoc": {
    "kind": "user",
    "methods": {
      "bidInHiddenRound(bytes32)": {
        "notice": "Place a hidden bid by hashing it with keccak256(). The deposit is only refunded if the bid is above the minimum bid value,  and that the bid equals the bid in the open round"
      }
    },
    "version": 1
  }
}