{
  "contractName": "TestAuctionController",
  "abi": [
    {
      "inputs": [],
      "stateMutability": "nonpayable",
      "type": "constructor"
    },
    {
      "anonymous": false,
      "inputs": [
        {
          "indexed": false,
          "internalType": "address",
          "name": "auction",
          "type": "address"
        },
        {
          "components": [
            {
              "internalType": "address",
              "name": "sellerAddress",
              "type": "address"
            },
            {
              "internalType": "uint256",
              "name": "createdAt",
              "type": "uint256"
            },
            {
              "internalType": "uint256",
              "name": "energyAmount",
              "type": "uint256"
            },
            {
              "internalType": "bool",
              "name": "isActive",
              "type": "bool"
            }
          ],
          "indexed": false,
          "internalType": "struct AuctionController.ActiveAuction",
          "name": "details",
          "type": "tuple"
        }
      ],
      "name": "CreatedAuction",
      "type": "event"
    },
    {
      "anonymous": false,
      "inputs": [
        {
          "indexed": false,
          "internalType": "address",
          "name": "auction",
          "type": "address"
        }
      ],
      "name": "DeletedAuction",
      "type": "event"
    },
    {
      "inputs": [
        {
          "internalType": "uint256",
          "name": "",
          "type": "uint256"
        }
      ],
      "name": "auctionAddresses",
      "outputs": [
        {
          "internalType": "address",
          "name": "",
          "type": "address"
        }
      ],
      "stateMutability": "view",
      "type": "function"
    },
    {
      "inputs": [
        {
          "internalType": "address",
          "name": "",
          "type": "address"
        }
      ],
      "name": "auctions",
      "outputs": [
        {
          "internalType": "address",
          "name": "sellerAddress",
          "type": "address"
        },
        {
          "internalType": "uint256",
          "name": "createdAt",
          "type": "uint256"
        },
        {
          "internalType": "uint256",
          "name": "energyAmount",
          "type": "uint256"
        },
        {
          "internalType": "bool",
          "name": "isActive",
          "type": "bool"
        }
      ],
      "stateMutability": "view",
      "type": "function"
    },
    {
      "inputs": [
        {
          "internalType": "address payable",
          "name": "_seller",
          "type": "address"
        },
        {
          "internalType": "uint256",
          "name": "_energyAmount",
          "type": "uint256"
        },
        {
          "internalType": "uint256",
          "name": "_minBidValue",
          "type": "uint256"
        },
        {
          "internalType": "uint256",
          "name": "_depositValue",
          "type": "uint256"
        }
      ],
      "name": "createNewAuction",
      "outputs": [],
      "stateMutability": "payable",
      "type": "function"
    },
    {
      "inputs": [
        {
          "internalType": "address",
          "name": "auctionAddress",
          "type": "address"
        }
      ],
      "name": "deleteAuction",
      "outputs": [],
      "stateMutability": "nonpayable",
      "type": "function"
    },
    {
      "inputs": [],
      "name": "getActiveAuctions",
      "outputs": [
        {
          "internalType": "address[]",
          "name": "",
          "type": "address[]"
        }
      ],
      "stateMutability": "view",
      "type": "function"
    },
    {
      "inputs": [],
      "name": "getAuctionAddresses",
      "outputs": [
        {
          "internalType": "address[]",
          "name": "",
          "type": "address[]"
        }
      ],
      "stateMutability": "view",
      "type": "function"
    },
    {
      "inputs": [
        {
          "internalType": "uint256",
          "name": "newTime",
          "type": "uint256"
        }
      ],
      "name": "setCurrentTime",
      "outputs": [],
      "stateMutability": "nonpayable",
      "type": "function"
    }
  ],
  "bytecode": "0x608060405234801561001057600080fd5b50336000806101000a81548173ffffffffffffffffffffffffffffffffffffffff021916908373ffffffffffffffffffffffffffffffffffffffff160217905550614d21806100606000396000f3fe6080604052600436106200007a5760003560e01c80637b07d60f11620000555780637b07d60f1462000124578063c293424e1462000144578063ca98362b1462000172578063cf44b5d514620001b6576200007a565b80631d59410a146200007f57806322f8e56614620000c65780634802ae2414620000f4575b600080fd5b3480156200008c57600080fd5b50620000ab6004803603810190620000a5919062000c2d565b620001e6565b604051620000bd949392919062000fb6565b60405180910390f35b348015620000d357600080fd5b50620000f26004803603810190620000ec919062000cf1565b62000243565b005b3480156200010157600080fd5b506200010c6200024d565b6040516200011b919062001003565b60405180910390f35b6200014260048036038101906200013c919062000c59565b620002dd565b005b3480156200015157600080fd5b506200017060048036038101906200016a919062000c2d565b620004fe565b005b3480156200017f57600080fd5b506200019e600480360381019062000198919062000cf1565b620008ed565b604051620001ad919062000f0f565b60405180910390f35b348015620001c357600080fd5b50620001ce6200092d565b604051620001dd919062001003565b60405180910390f35b60016020528060005260406000206000915090508060000160009054906101000a900473ffffffffffffffffffffffffffffffffffffffff16908060010154908060020154908060030160009054906101000a900460ff16905084565b8060038190555050565b60606002805480602002602001604051908101604052809291908181526020018280548015620002d357602002820191906000526020600020905b8160009054906101000a900473ffffffffffffffffffffffffffffffffffffffff1673ffffffffffffffffffffffffffffffffffffffff168152602001906001019080831162000288575b5050505050905090565b60008484848461012c604051620002f49062000bac565b6200030495949392919062000f2c565b604051809103906000f08015801562000321573d6000803e3d6000fd5b5090506002819080600181540180825580915050600190039060005260206000200160009091909190916101000a81548173ffffffffffffffffffffffffffffffffffffffff021916908373ffffffffffffffffffffffffffffffffffffffff16021790555060405180608001604052808673ffffffffffffffffffffffffffffffffffffffff16815260200142815260200185815260200160011515815250600160008373ffffffffffffffffffffffffffffffffffffffff1673ffffffffffffffffffffffffffffffffffffffff16815260200190815260200160002060008201518160000160006101000a81548173ffffffffffffffffffffffffffffffffffffffff021916908373ffffffffffffffffffffffffffffffffffffffff160217905550602082015181600101556040820151816002015560608201518160030160006101000a81548160ff0219169083151502179055509050507fc453b32365fca88f5a806f35d0d437a1913910ca122d015ced338a643b43db5d81600160008473ffffffffffffffffffffffffffffffffffffffff1673ffffffffffffffffffffffffffffffffffffffff168152602001908152602001600020604051620004ef92919062000f89565b60405180910390a15050505050565b6000819050600160008373ffffffffffffffffffffffffffffffffffffffff1673ffffffffffffffffffffffffffffffffffffffff16815260200190815260200160002060000160009054906101000a900473ffffffffffffffffffffffffffffffffffffffff1673ffffffffffffffffffffffffffffffffffffffff163373ffffffffffffffffffffffffffffffffffffffff161480620005eb575060008054906101000a900473ffffffffffffffffffffffffffffffffffffffff1673ffffffffffffffffffffffffffffffffffffffff163373ffffffffffffffffffffffffffffffffffffffff16145b6200062d576040517f08c379a0000000000000000000000000000000000000000000000000000000008152600401620006249062001027565b60405180910390fd5b8073ffffffffffffffffffffffffffffffffffffffff1663cc689c556040518163ffffffff1660e01b815260040160206040518083038186803b1580156200067457600080fd5b505afa15801562000689573d6000803e3d6000fd5b505050506040513d601f19601f82011682018060405250810190620006af919062000d1d565b620006b962000ba2565b1015620007c157600380811115620006fa577f4e487b7100000000000000000000000000000000000000000000000000000000600052602160045260246000fd5b8173ffffffffffffffffffffffffffffffffffffffff1663378aa7016040518163ffffffff1660e01b815260040160206040518083038186803b1580156200074157600080fd5b505afa15801562000756573d6000803e3d6000fd5b505050506040513d601f19601f820116820180604052508101906200077c919062000cc5565b6003811115620007b5577f4e487b7100000000000000000000000000000000000000000000000000000000600052602160045260246000fd5b14620007c057600080fd5b5b8073ffffffffffffffffffffffffffffffffffffffff1663c6eb7d4a6040518163ffffffff1660e01b8152600401600060405180830381600087803b1580156200080a57600080fd5b505af11580156200081f573d6000803e3d6000fd5b50505050600160008373ffffffffffffffffffffffffffffffffffffffff1673ffffffffffffffffffffffffffffffffffffffff168152602001908152602001600020600080820160006101000a81549073ffffffffffffffffffffffffffffffffffffffff0219169055600182016000905560028201600090556003820160006101000a81549060ff021916905550507f401471a47a290325f3b1e6894839a07d25d1466962ad262056eca0071b79e37e82604051620008e1919062000f0f565b60405180910390a15050565b60028181548110620008fe57600080fd5b906000526020600020016000915054906101000a900473ffffffffffffffffffffffffffffffffffffffff1681565b60608060005b60028054905081101562000b9a576000600282815481106200097e577f4e487b7100000000000000000000000000000000000000000000000000000000600052603260045260246000fd5b9060005260206000200160009054906101000a900473ffffffffffffffffffffffffffffffffffffffff16905060006003811115620009e6577f4e487b7100000000000000000000000000000000000000000000000000000000600052602160045260246000fd5b8173ffffffffffffffffffffffffffffffffffffffff1663378aa7016040518163ffffffff1660e01b815260040160206040518083038186803b15801562000a2d57600080fd5b505afa15801562000a42573d6000803e3d6000fd5b505050506040513d601f19601f8201168201806040525081019062000a68919062000cc5565b600381111562000aa1577f4e487b7100000000000000000000000000000000000000000000000000000000600052602160045260246000fd5b141562000b83576002828154811062000ae3577f4e487b7100000000000000000000000000000000000000000000000000000000600052603260045260246000fd5b9060005260206000200160009054906101000a900473ffffffffffffffffffffffffffffffffffffffff1683838151811062000b48577f4e487b7100000000000000000000000000000000000000000000000000000000600052603260045260246000fd5b602002602001019073ffffffffffffffffffffffffffffffffffffffff16908173ffffffffffffffffffffffffffffffffffffffff16815250505b50808062000b919062001196565b91505062000933565b508091505090565b6000600354905090565b613a1d80620012cf83390190565b60008135905062000bcb816200126f565b92915050565b60008135905062000be28162001289565b92915050565b60008151905062000bf981620012a3565b92915050565b60008135905062000c1081620012b4565b92915050565b60008151905062000c2781620012b4565b92915050565b60006020828403121562000c4057600080fd5b600062000c508482850162000bba565b91505092915050565b6000806000806080858703121562000c7057600080fd5b600062000c808782880162000bd1565b945050602062000c938782880162000bff565b935050604062000ca68782880162000bff565b925050606062000cb98782880162000bff565b91505092959194509250565b60006020828403121562000cd857600080fd5b600062000ce88482850162000be8565b91505092915050565b60006020828403121562000d0457600080fd5b600062000d148482850162000bff565b91505092915050565b60006020828403121562000d3057600080fd5b600062000d408482850162000c16565b91505092915050565b600062000d57838362000d74565b60208301905092915050565b62000d6e81620010de565b82525050565b62000d7f81620010ca565b82525050565b62000d9081620010ca565b82525050565b600062000da38262001059565b62000daf818562001071565b935062000dbc8362001049565b8060005b8381101562000df357815162000dd7888262000d49565b975062000de48362001064565b92505060018101905062000dc0565b5085935050505092915050565b62000e0b81620010f2565b82525050565b62000e1c81620010f2565b82525050565b62000e2d8162001128565b82525050565b600062000e4260328362001082565b915062000e4f8262001220565b604082019050919050565b60808201600080830154905062000e71816200113c565b62000e80600086018262000d74565b506001830154905062000e938162001178565b62000ea2602086018262000eed565b506002830154905062000eb58162001178565b62000ec4604086018262000eed565b506003830154905062000ed7816200115a565b62000ee6606086018262000e00565b5050505050565b62000ef8816200111e565b82525050565b62000f09816200111e565b82525050565b600060208201905062000f26600083018462000d85565b92915050565b600060a08201905062000f43600083018862000d63565b62000f52602083018762000efe565b62000f61604083018662000efe565b62000f70606083018562000efe565b62000f7f608083018462000e22565b9695505050505050565b600060a08201905062000fa0600083018562000d85565b62000faf602083018462000e5a565b9392505050565b600060808201905062000fcd600083018762000d85565b62000fdc602083018662000efe565b62000feb604083018562000efe565b62000ffa606083018462000e11565b95945050505050565b600060208201905081810360008301526200101f818462000d96565b905092915050565b60006020820190508181036000830152620010428162000e33565b9050919050565b6000819050602082019050919050565b600081519050919050565b6000602082019050919050565b600082825260208201905092915050565b600082825260208201905092915050565b600073ffffffffffffffffffffffffffffffffffffffff82169050919050565b600060ff82169050919050565b6000819050919050565b6000620010d782620010fe565b9050919050565b6000620010eb82620010fe565b9050919050565b60008115159050919050565b600073ffffffffffffffffffffffffffffffffffffffff82169050919050565b6000819050919050565b600062001135826200111e565b9050919050565b6000620011536200114d8362001213565b62001093565b9050919050565b6000620011716200116b8362001213565b620010b3565b9050919050565b60006200118f620011898362001213565b620010c0565b9050919050565b6000620011a3826200111e565b91507fffffffffffffffffffffffffffffffffffffffffffffffffffffffffffffffff821415620011d957620011d8620011e4565b5b600182019050919050565b7f4e487b7100000000000000000000000000000000000000000000000000000000600052601160045260246000fd5b60008160001c9050919050565b7f43616e206f6e6c792062652064656c657465642062792061646d696e206f722060008201527f7468652061756374696f6e2073656c6c65720000000000000000000000000000602082015250565b6200127a81620010ca565b81146200128657600080fd5b50565b6200129481620010de565b8114620012a057600080fd5b50565b60048110620012b157600080fd5b50565b620012bf816200111e565b8114620012cb57600080fd5b5056fe60806040526105a06000556278614f6001553480156200001e57600080fd5b5060405162003a1d38038062003a1d8339818101604052810190620000449190620003f5565b33600260006101000a81548173ffffffffffffffffffffffffffffffffffffffff021916908373ffffffffffffffffffffffffffffffffffffffff16021790555060405180610100016040528060006003811115620000cc577f4e487b7100000000000000000000000000000000000000000000000000000000600052602160045260246000fd5b81526020018673ffffffffffffffffffffffffffffffffffffffff168152602001858152602001600185620001029190620006b6565b8152602001600184620001169190620006b6565b815260200173__Utils_________________________________63529b380f846040518263ffffffff1660e01b81526004016200015491906200063c565b60206040518083038186803b1580156200016d57600080fd5b505af415801562000182573d6000803e3d6000fd5b505050506040513d601f19601f82011682018060405250810190620001a8919062000477565b620001b8620003bf60201b60201c565b620001c4919062000659565b815260200173__Utils_________________________________63529b380f600285620001f29190620006b6565b6040518263ffffffff1660e01b81526004016200021091906200063c565b60206040518083038186803b1580156200022957600080fd5b505af41580156200023e573d6000803e3d6000fd5b505050506040513d601f19601f8201168201806040525081019062000264919062000477565b62000274620003bf60201b60201c565b62000280919062000659565b81526020016000815250600360008201518160000160006101000a81548160ff02191690836003811115620002de577f4e487b7100000000000000000000000000000000000000000000000000000000600052602160045260246000fd5b021790555060208201518160000160016101000a81548173ffffffffffffffffffffffffffffffffffffffff021916908373ffffffffffffffffffffffffffffffffffffffff16021790555060408201518160010155606082015181600201556080820151816003015560a0820151816004015560c0820151816005015560e082015181600601559050507feee9160b53cd061a7cadf05d6831a55c29d096b9558ae43f0417fd7d69dd77a160036200039c620003bf60201b60201c565b604051620003ac9291906200060d565b60405180910390a15050505050620008d2565b600042905090565b600081519050620003d8816200089e565b92915050565b600081519050620003ef81620008b8565b92915050565b600080600080600060a086880312156200040e57600080fd5b60006200041e88828901620003c7565b95505060206200043188828901620003de565b94505060406200044488828901620003de565b93505060606200045788828901620003de565b92505060806200046a88828901620003de565b9150509295509295909350565b6000602082840312156200048a57600080fd5b60006200049a84828501620003de565b91505092915050565b620004ae816200074e565b82525050565b620004bf81620007a1565b82525050565b61010082016000808301549050620004dd81620007b5565b620004ec6000860182620004b4565b50620004f881620007f1565b620005076020860182620004a3565b50600183015490506200051a81620007d3565b620005296040860182620005da565b50600283015490506200053c81620007d3565b6200054b6060860182620005da565b50600383015490506200055e81620007d3565b6200056d6080860182620005da565b50600483015490506200058081620007d3565b6200058f60a0860182620005da565b5060058301549050620005a281620007d3565b620005b160c0860182620005da565b5060068301549050620005c481620007d3565b620005d360e0860182620005da565b5050505050565b620005e58162000797565b82525050565b620005f68162000797565b82525050565b620006078162000797565b82525050565b600061012082019050620006256000830185620004c5565b62000635610100830184620005eb565b9392505050565b6000602082019050620006536000830184620005fc565b92915050565b6000620006668262000797565b9150620006738362000797565b9250827fffffffffffffffffffffffffffffffffffffffffffffffffffffffffffffffff03821115620006ab57620006aa6200080f565b5b828201905092915050565b6000620006c38262000797565b9150620006d08362000797565b9250817fffffffffffffffffffffffffffffffffffffffffffffffffffffffffffffffff04831182151516156200070c576200070b6200080f565b5b828202905092915050565b600073ffffffffffffffffffffffffffffffffffffffff82169050919050565b600060ff82169050919050565b6000819050919050565b60006200075b8262000777565b9050919050565b6000819050620007728262000887565b919050565b600073ffffffffffffffffffffffffffffffffffffffff82169050919050565b6000819050919050565b6000620007ae8262000762565b9050919050565b6000620007cc620007c6836200086d565b62000737565b9050919050565b6000620007ea620007e4836200086d565b62000744565b9050919050565b60006200080862000802836200087a565b62000717565b9050919050565b7f4e487b7100000000000000000000000000000000000000000000000000000000600052601160045260246000fd5b7f4e487b7100000000000000000000000000000000000000000000000000000000600052602160045260246000fd5b60008160001c9050919050565b60008160081c9050919050565b600481106200089b576200089a6200083e565b5b50565b620008a9816200074e565b8114620008b557600080fd5b50565b620008c38162000797565b8114620008cf57600080fd5b50565b61313b80620008e26000396000f3fe6080604052600436106101095760003560e01c8063aa46ded611610095578063cc689c5511610064578063cc689c551461031f578063d94a35051461034a578063da984e801461037c578063ed7a4e0b146103b9578063fcc53329146103e457610109565b8063aa46ded614610277578063b788e2f2146102a0578063c6eb7d4a146102cb578063c930afed146102e257610109565b80633910ca10116100dc5780633910ca10146101a657806355d64d03146101c257806362ea82db146101f457806366a1d23114610235578063801f17bb1461026057610109565b806311631d061461010e5780631b347aae14610139578063378252f214610164578063378aa7011461017b575b600080fd5b34801561011a57600080fd5b506101236103fb565b6040516101309190612b0a565b60405180910390f35b34801561014557600080fd5b5061014e610401565b60405161015b9190612aef565b60405180910390f35b34801561017057600080fd5b50610179610777565b005b34801561018757600080fd5b50610190610a18565b60405161019d9190612762565b60405180910390f35b6101c060048036038101906101bb919061227d565b610a32565b005b3480156101ce57600080fd5b506101d7610d16565b6040516101eb98979695949392919061277d565b60405180910390f35b34801561020057600080fd5b5061021b60048036038101906102169190612254565b610d79565b60405161022c95949392919061270f565b60405180910390f35b34801561024157600080fd5b5061024a610dc9565b6040516102579190612b0a565b60405180910390f35b34801561026c57600080fd5b50610275610dd6565b005b34801561028357600080fd5b5061029e600480360381019061029991906122a6565b610f95565b005b3480156102ac57600080fd5b506102b56113bf565b6040516102c29190612b0a565b60405180910390f35b3480156102d757600080fd5b506102e06113cc565b005b3480156102ee57600080fd5b50610309600480360381019061030491906122a6565b611464565b60405161031691906125fc565b60405180910390f35b34801561032b57600080fd5b506103346114a3565b6040516103419190612b0a565b60405180910390f35b34801561035657600080fd5b5061035f6114b0565b6040516103739897969594939291906127fb565b60405180910390f35b34801561038857600080fd5b506103a3600480360381019061039e91906122a6565b611532565b6040516103b091906125fc565b60405180910390f35b3480156103c557600080fd5b506103ce611571565b6040516103db91906125fc565b60405180910390f35b3480156103f057600080fd5b506103f9611597565b005b600b5481565b6104096121b1565b6002806003811115610444577f4e487b7100000000000000000000000000000000000000000000000000000000600052602160045260246000fd5b600360000160009054906101000a900460ff16600381111561048f577f4e487b7100000000000000000000000000000000000000000000000000000000600052602160045260246000fd5b146104cf576040517f08c379a00000000000000000000000000000000000000000000000000000000081526004016104c6906129e9565b60405180910390fd5b600360050154806104de611756565b1161051e576040517f08c379a00000000000000000000000000000000000000000000000000000000081526004016105159061293f565b60405180910390fd5b600a60009054906101000a900473ffffffffffffffffffffffffffffffffffffffff1673ffffffffffffffffffffffffffffffffffffffff163373ffffffffffffffffffffffffffffffffffffffff16146105ae576040517f08c379a00000000000000000000000000000000000000000000000000000000081526004016105a590612a09565b60405180910390fd5b60038060000160006101000a81548160ff021916908360038111156105fc577f4e487b7100000000000000000000000000000000000000000000000000000000600052602160045260246000fd5b02179055507f7ed3e08f4e01cb0fc3643e34bcfd45247dec68ed4414209bda9f5e5eab13d0fd3361062b611756565b60405161063992919061266a565b60405180910390a1600d60003373ffffffffffffffffffffffffffffffffffffffff1673ffffffffffffffffffffffffffffffffffffffff1681526020019081526020016000206040518060c00160405290816000820160009054906101000a900473ffffffffffffffffffffffffffffffffffffffff1673ffffffffffffffffffffffffffffffffffffffff1673ffffffffffffffffffffffffffffffffffffffff1681526020016001820160009054906101000a900473ffffffffffffffffffffffffffffffffffffffff1673ffffffffffffffffffffffffffffffffffffffff1673ffffffffffffffffffffffffffffffffffffffff1681526020016002820154815260200160038201548152602001600482015481526020016005820160009054906101000a900460ff1615151515815250509250505090565b60018060038111156107b2577f4e487b7100000000000000000000000000000000000000000000000000000000600052602160045260246000fd5b600360000160009054906101000a900460ff1660038111156107fd577f4e487b7100000000000000000000000000000000000000000000000000000000600052602160045260246000fd5b1461083d576040517f08c379a0000000000000000000000000000000000000000000000000000000008152600401610834906129e9565b60405180910390fd5b6003600501548061084c611756565b1161088c576040517f08c379a00000000000000000000000000000000000000000000000000000000081526004016108839061293f565b60405180910390fd5b6002600360000160006101000a81548160ff021916908360038111156108db577f4e487b7100000000000000000000000000000000000000000000000000000000600052602160045260246000fd5b02179055507f3dbdd4835dda2d2ea64f4793b53cbfa0bd395cc2bdb266568ccfedbf2f9fde4b600360000160009054906101000a900460ff1661091c611756565b60405161092a929190612a93565b60405180910390a161093a61175e565b610942611b8d565b61094a611f32565b7f2f54d857cdbaa677948ee3e8b7f06f0064a2e99dd79ddab0373560d9bf5b647e600a60009054906101000a900473ffffffffffffffffffffffffffffffffffffffff16600c6000600a60009054906101000a900473ffffffffffffffffffffffffffffffffffffffff1673ffffffffffffffffffffffffffffffffffffffff1673ffffffffffffffffffffffffffffffffffffffff16815260200190815260200160002060020154476109fc611756565b604051610a0c94939291906126ca565b60405180910390a15050565b6000600360000160009054906101000a900460ff16905090565b6000806003811115610a6d577f4e487b7100000000000000000000000000000000000000000000000000000000600052602160045260246000fd5b600360000160009054906101000a900460ff166003811115610ab8577f4e487b7100000000000000000000000000000000000000000000000000000000600052602160045260246000fd5b14610af8576040517f08c379a0000000000000000000000000000000000000000000000000000000008152600401610aef906129e9565b60405180910390fd5b60036004015480610b07611756565b10610b47576040517f08c379a0000000000000000000000000000000000000000000000000000000008152600401610b3e90612879565b60405180910390fd5b6003800154341015610b8e576040517f08c379a0000000000000000000000000000000000000000000000000000000008152600401610b859061291f565b60405180910390fd5b6040518060a0016040528060011515815260200184815260200160008152602001600015158152602001600134610bc59190612b8c565b815250600c60003373ffffffffffffffffffffffffffffffffffffffff1673ffffffffffffffffffffffffffffffffffffffff16815260200190815260200160002060008201518160000160006101000a81548160ff021916908315150217905550602082015181600101556040820151816002015560608201518160030160006101000a81548160ff02191690831515021790555060808201518160040155905050600e339080600181540180825580915050600190039060005260206000200160009091909190916101000a81548173ffffffffffffffffffffffffffffffffffffffff021916908373ffffffffffffffffffffffffffffffffffffffff1602179055507f0d6408c6d1bfcfcdb938ee8c6bb4dbbfa0081219c5cf09b83a0e29d55f6d531533843447610cf8611756565b604051610d09959493929190612617565b60405180910390a1505050565b60038060000160009054906101000a900460ff16908060000160019054906101000a900473ffffffffffffffffffffffffffffffffffffffff16908060010154908060020154908060030154908060040154908060050154908060060154905088565b600c6020528060005260406000206000915090508060000160009054906101000a900460ff16908060010154908060020154908060030160009054906101000a900460ff16908060040154905085565b6000600f80549050905090565b6000806003811115610e11577f4e487b7100000000000000000000000000000000000000000000000000000000600052602160045260246000fd5b600360000160009054906101000a900460ff166003811115610e5c577f4e487b7100000000000000000000000000000000000000000000000000000000600052602160045260246000fd5b14610e9c576040517f08c379a0000000000000000000000000000000000000000000000000000000008152600401610e93906129e9565b60405180910390fd5b60036004015480610eab611756565b11610eeb576040517f08c379a0000000000000000000000000000000000000000000000000000000008152600401610ee29061293f565b60405180910390fd5b6001600360000160006101000a81548160ff02191690836003811115610f3a577f4e487b7100000000000000000000000000000000000000000000000000000000600052602160045260246000fd5b02179055507f3dbdd4835dda2d2ea64f4793b53cbfa0bd395cc2bdb266568ccfedbf2f9fde4b600360000160009054906101000a900460ff16610f7b611756565b604051610f899291906128e3565b60405180910390a15050565b6001806003811115610fd0577f4e487b7100000000000000000000000000000000000000000000000000000000600052602160045260246000fd5b600360000160009054906101000a900460ff16600381111561101b577f4e487b7100000000000000000000000000000000000000000000000000000000600052602160045260246000fd5b1461105b576040517f08c379a0000000000000000000000000000000000000000000000000000000008152600401611052906129e9565b60405180910390fd5b6003600501548061106a611756565b106110aa576040517f08c379a00000000000000000000000000000000000000000000000000000000081526004016110a190612879565b60405180910390fd5b600c60003373ffffffffffffffffffffffffffffffffffffffff1673ffffffffffffffffffffffffffffffffffffffff16815260200190815260200160002060000160009054906101000a900460ff16611139576040517f08c379a00000000000000000000000000000000000000000000000000000000081526004016111309061295f565b60405180910390fd5b600360020154831015611181576040517f08c379a000000000000000000000000000000000000000000000000000000000815260040161117890612a73565b60405180910390fd5b60008360405160200161119491906125e1565b60405160208183030381529060405280519060200120905080600c60003373ffffffffffffffffffffffffffffffffffffffff1673ffffffffffffffffffffffffffffffffffffffff1681526020019081526020016000206001015414611230576040517f08c379a00000000000000000000000000000000000000000000000000000000081526004016112279061297f565b60405180910390fd5b83600c60003373ffffffffffffffffffffffffffffffffffffffff1673ffffffffffffffffffffffffffffffffffffffff16815260200190815260200160002050506001600c60003373ffffffffffffffffffffffffffffffffffffffff1673ffffffffffffffffffffffffffffffffffffffff16815260200190815260200160002060030160006101000a81548160ff02191690831515021790555083600c60003373ffffffffffffffffffffffffffffffffffffffff1673ffffffffffffffffffffffffffffffffffffffff16815260200190815260200160002060020181905550600f339080600181540180825580915050600190039060005260206000200160009091909190916101000a81548173ffffffffffffffffffffffffffffffffffffffff021916908373ffffffffffffffffffffffffffffffffffffffff1602179055507f374421a8b171167e98a225a110041abe0534f837136644fa4d77c4bb9b8c2f5933856113a2611756565b6040516113b193929190612693565b60405180910390a150505050565b6000600e80549050905090565b600260009054906101000a900473ffffffffffffffffffffffffffffffffffffffff1673ffffffffffffffffffffffffffffffffffffffff163373ffffffffffffffffffffffffffffffffffffffff161461142657600080fd5b600360000160019054906101000a900473ffffffffffffffffffffffffffffffffffffffff1673ffffffffffffffffffffffffffffffffffffffff16ff5b600f818154811061147457600080fd5b906000526020600020016000915054906101000a900473ffffffffffffffffffffffffffffffffffffffff1681565b6000600360060154905090565b600080600080600080600080600360000160009054906101000a900460ff16600360000160019054906101000a900473ffffffffffffffffffffffffffffffffffffffff166003600101546003600201546003800154600360040154600360050154600360060154975097509750975097509750975097509091929394959697565b600e818154811061154257600080fd5b906000526020600020016000915054906101000a900473ffffffffffffffffffffffffffffffffffffffff1681565b600a60009054906101000a900473ffffffffffffffffffffffffffffffffffffffff1681565b60018060038111156115d2577f4e487b7100000000000000000000000000000000000000000000000000000000600052602160045260246000fd5b600360000160009054906101000a900460ff16600381111561161d577f4e487b7100000000000000000000000000000000000000000000000000000000600052602160045260246000fd5b1461165d576040517f08c379a0000000000000000000000000000000000000000000000000000000008152600401611654906129e9565b60405180910390fd5b6003600501548061166c611756565b116116ac576040517f08c379a00000000000000000000000000000000000000000000000000000000081526004016116a39061293f565b60405180910390fd5b6002600360000160006101000a81548160ff021916908360038111156116fb577f4e487b7100000000000000000000000000000000000000000000000000000000600052602160045260246000fd5b02179055507f3dbdd4835dda2d2ea64f4793b53cbfa0bd395cc2bdb266568ccfedbf2f9fde4b600360000160009054906101000a900460ff1661173c611756565b60405161174a929190612a93565b60405180910390a15050565b600042905090565b6002806003811115611799577f4e487b7100000000000000000000000000000000000000000000000000000000600052602160045260246000fd5b600360000160009054906101000a900460ff1660038111156117e4577f4e487b7100000000000000000000000000000000000000000000000000000000600052602160045260246000fd5b14611824576040517f08c379a000000000000000000000000000000000000000000000000000000000815260040161181b906129e9565b60405180910390fd5b60008060005b600f8054905081101561190b576000600f8281548110611873577f4e487b7100000000000000000000000000000000000000000000000000000000600052603260045260246000fd5b9060005260206000200160009054906101000a900473ffffffffffffffffffffffffffffffffffffffff1690506000600c60008373ffffffffffffffffffffffffffffffffffffffff1673ffffffffffffffffffffffffffffffffffffffff168152602001908152602001600020600201549050838111156118f6578194508093505b5050808061190390612cd9565b91505061182a565b5081600a60006101000a81548173ffffffffffffffffffffffffffffffffffffffff021916908373ffffffffffffffffffffffffffffffffffffffff16021790555080600b819055507ff002fc7830b6bcafdad5b907dac3741c8c65925d7faefd09f011bd2b7355a85c600a60009054906101000a900473ffffffffffffffffffffffffffffffffffffffff16600b546119a3611756565b6040516119b293929190612693565b60405180910390a16040518060c00160405280600a60009054906101000a900473ffffffffffffffffffffffffffffffffffffffff1673ffffffffffffffffffffffffffffffffffffffff1681526020013073ffffffffffffffffffffffffffffffffffffffff1681526020016003600101548152602001611a32611756565b8152602001600154611a42611756565b611a4c9190612b36565b815260200160011515815250600d6000600a60009054906101000a900473ffffffffffffffffffffffffffffffffffffffff1673ffffffffffffffffffffffffffffffffffffffff1673ffffffffffffffffffffffffffffffffffffffff16815260200190815260200160002060008201518160000160006101000a81548173ffffffffffffffffffffffffffffffffffffffff021916908373ffffffffffffffffffffffffffffffffffffffff16021790555060208201518160010160006101000a81548173ffffffffffffffffffffffffffffffffffffffff021916908373ffffffffffffffffffffffffffffffffffffffff16021790555060408201518160020155606082015181600301556080820151816004015560a08201518160050160006101000a81548160ff021916908315150217905550905050505050565b6002806003811115611bc8577f4e487b7100000000000000000000000000000000000000000000000000000000600052602160045260246000fd5b600360000160009054906101000a900460ff166003811115611c13577f4e487b7100000000000000000000000000000000000000000000000000000000600052602160045260246000fd5b14611c53576040517f08c379a0000000000000000000000000000000000000000000000000000000008152600401611c4a906129e9565b60405180910390fd5b600073ffffffffffffffffffffffffffffffffffffffff16600a60009054906101000a900473ffffffffffffffffffffffffffffffffffffffff1673ffffffffffffffffffffffffffffffffffffffff161415611ce5576040517f08c379a0000000000000000000000000000000000000000000000000000000008152600401611cdc90612acf565b60405180910390fd5b60005b600e80549050811015611f2e576000600e8281548110611d31577f4e487b7100000000000000000000000000000000000000000000000000000000600052603260045260246000fd5b9060005260206000200160009054906101000a900473ffffffffffffffffffffffffffffffffffffffff1690506000600c60008373ffffffffffffffffffffffffffffffffffffffff1673ffffffffffffffffffffffffffffffffffffffff1681526020019081526020016000206040518060a00160405290816000820160009054906101000a900460ff1615151515815260200160018201548152602001600282015481526020016003820160009054906101000a900460ff1615151515815260200160048201548152505090508060600151611e10575050611f1b565b6000600a60009054906101000a900473ffffffffffffffffffffffffffffffffffffffff1673ffffffffffffffffffffffffffffffffffffffff168373ffffffffffffffffffffffffffffffffffffffff16149050600081611e76578260800151611e8b565b82604001518360800151611e8a9190612be6565b5b90507f7c4000a16d683bc6bd33d5882af0733a8a58704ed6a1fbaaa780a62b7af76d958482611eb8611756565b604051611ec793929190612a29565b60405180910390a18373ffffffffffffffffffffffffffffffffffffffff166108fc829081150290604051600060405180830381858888f19350505050158015611f15573d6000803e3d6000fd5b50505050505b8080611f2690612cd9565b915050611ce8565b5050565b6002806003811115611f6d577f4e487b7100000000000000000000000000000000000000000000000000000000600052602160045260246000fd5b600360000160009054906101000a900460ff166003811115611fb8577f4e487b7100000000000000000000000000000000000000000000000000000000600052602160045260246000fd5b14611ff8576040517f08c379a0000000000000000000000000000000000000000000000000000000008152600401611fef906129e9565b60405180910390fd5b6000600c6000600a60009054906101000a900473ffffffffffffffffffffffffffffffffffffffff1673ffffffffffffffffffffffffffffffffffffffff1673ffffffffffffffffffffffffffffffffffffffff1681526020019081526020016000206002015490506000600360000160019054906101000a900473ffffffffffffffffffffffffffffffffffffffff1690507f7c4000a16d683bc6bd33d5882af0733a8a58704ed6a1fbaaa780a62b7af76d9581836120b6611756565b6040516120c593929190612899565b60405180910390a18073ffffffffffffffffffffffffffffffffffffffff166108fc839081150290604051600060405180830381858888f19350505050158015612113573d6000803e3d6000fd5b506000479050828111156121ab577f7c4000a16d683bc6bd33d5882af0733a8a58704ed6a1fbaaa780a62b7af76d95828261214c611756565b60405161215b9392919061299f565b60405180910390a18173ffffffffffffffffffffffffffffffffffffffff166108fc829081150290604051600060405180830381858888f193505050501580156121a9573d6000803e3d6000fd5b505b50505050565b6040518060c00160405280600073ffffffffffffffffffffffffffffffffffffffff168152602001600073ffffffffffffffffffffffffffffffffffffffff1681526020016000815260200160008152602001600081526020016000151581525090565b600081359050612224816130c0565b92915050565b600081359050612239816130d7565b92915050565b60008135905061224e816130ee565b92915050565b60006020828403121561226657600080fd5b600061227484828501612215565b91505092915050565b60006020828403121561228f57600080fd5b600061229d8482850161222a565b91505092915050565b6000602082840312156122b857600080fd5b60006122c68482850161223f565b91505092915050565b6122d881612c91565b82525050565b6122e781612c2c565b82525050565b6122f681612c1a565b82525050565b61230581612c1a565b82525050565b61231481612c3e565b82525050565b61232381612c3e565b82525050565b61233281612c4a565b82525050565b61234181612ca3565b82525050565b6000612354601983612b25565b915061235f82612d8a565b602082019050919050565b6000612377601e83612b25565b915061238282612db3565b602082019050919050565b600061239a600c83612b25565b91506123a582612ddc565b602082019050919050565b60006123bd601883612b25565b91506123c882612e05565b602082019050919050565b60006123e0602683612b25565b91506123eb82612e2e565b604082019050919050565b6000612403602f83612b25565b915061240e82612e7d565b604082019050919050565b6000612426602483612b25565b915061243182612ecc565b604082019050919050565b6000612449602383612b25565b915061245482612f1b565b604082019050919050565b600061246c600d83612b25565b915061247782612f6a565b602082019050919050565b600061248f602683612b25565b915061249a82612f93565b604082019050919050565b60006124b2601f83612b25565b91506124bd82612fe2565b602082019050919050565b60006124d5601483612b25565b91506124e08261300b565b602082019050919050565b60006124f8600a83612b25565b915061250382613034565b602082019050919050565b600061251b602f83612b25565b91506125268261305d565b604082019050919050565b60c08201600082015161254760008501826122ed565b50602082015161255a60208501826122ed565b50604082015161256d60408501826125ac565b50606082015161258060608501826125ac565b50608082015161259360808501826125ac565b5060a08201516125a660a085018261230b565b50505050565b6125b581612c87565b82525050565b6125c481612c87565b82525050565b6125db6125d682612c87565b612d22565b82525050565b60006125ed82846125ca565b60208201915081905092915050565b600060208201905061261160008301846122fc565b92915050565b600060a08201905061262c60008301886122fc565b6126396020830187612329565b61264660408301866125bb565b61265360608301856125bb565b61266060808301846125bb565b9695505050505050565b600060408201905061267f60008301856122fc565b61268c60208301846125bb565b9392505050565b60006060820190506126a860008301866122fc565b6126b560208301856125bb565b6126c260408301846125bb565b949350505050565b60006080820190506126df60008301876122fc565b6126ec60208301866125bb565b6126f960408301856125bb565b61270660608301846125bb565b95945050505050565b600060a082019050612724600083018861231a565b6127316020830187612329565b61273e60408301866125bb565b61274b606083018561231a565b61275860808301846125bb565b9695505050505050565b60006020820190506127776000830184612338565b92915050565b600061010082019050612793600083018b612338565b6127a0602083018a6122de565b6127ad60408301896125bb565b6127ba60608301886125bb565b6127c760808301876125bb565b6127d460a08301866125bb565b6127e160c08301856125bb565b6127ee60e08301846125bb565b9998505050505050505050565b600061010082019050612811600083018b612338565b61281e602083018a6122fc565b61282b60408301896125bb565b61283860608301886125bb565b61284560808301876125bb565b61285260a08301866125bb565b61285f60c08301856125bb565b61286c60e08301846125bb565b9998505050505050505050565b6000602082019050818103600083015261289281612347565b9050919050565b600060808201905081810360008301526128b28161236a565b90506128c160208301866122cf565b6128ce60408301856125bb565b6128db60608301846125bb565b949350505050565b600060608201905081810360008301526128fc8161238d565b905061290b6020830185612338565b61291860408301846125bb565b9392505050565b60006020820190508181036000830152612938816123b0565b9050919050565b60006020820190508181036000830152612958816123d3565b9050919050565b60006020820190508181036000830152612978816123f6565b9050919050565b6000602082019050818103600083015261299881612419565b9050919050565b600060808201905081810360008301526129b88161243c565b90506129c760208301866122cf565b6129d460408301856125bb565b6129e160608301846125bb565b949350505050565b60006020820190508181036000830152612a028161245f565b9050919050565b60006020820190508181036000830152612a2281612482565b9050919050565b60006080820190508181036000830152612a42816124a5565b9050612a5160208301866122cf565b612a5e60408301856125bb565b612a6b60608301846125bb565b949350505050565b60006020820190508181036000830152612a8c816124c8565b9050919050565b60006060820190508181036000830152612aac816124eb565b9050612abb6020830185612338565b612ac860408301846125bb565b9392505050565b60006020820190508181036000830152612ae88161250e565b9050919050565b600060c082019050612b046000830184612531565b92915050565b6000602082019050612b1f60008301846125bb565b92915050565b600082825260208201905092915050565b6000612b4182612c87565b9150612b4c83612c87565b9250827fffffffffffffffffffffffffffffffffffffffffffffffffffffffffffffffff03821115612b8157612b80612d2c565b5b828201905092915050565b6000612b9782612c87565b9150612ba283612c87565b9250817fffffffffffffffffffffffffffffffffffffffffffffffffffffffffffffffff0483118215151615612bdb57612bda612d2c565b5b828202905092915050565b6000612bf182612c87565b9150612bfc83612c87565b925082821015612c0f57612c0e612d2c565b5b828203905092915050565b6000612c2582612c67565b9050919050565b6000612c3782612c67565b9050919050565b60008115159050919050565b6000819050919050565b6000819050612c62826130ac565b919050565b600073ffffffffffffffffffffffffffffffffffffffff82169050919050565b6000819050919050565b6000612c9c82612cb5565b9050919050565b6000612cae82612c54565b9050919050565b6000612cc082612cc7565b9050919050565b6000612cd282612c67565b9050919050565b6000612ce482612c87565b91507fffffffffffffffffffffffffffffffffffffffffffffffffffffffffffffffff821415612d1757612d16612d2c565b5b600182019050919050565b6000819050919050565b7f4e487b7100000000000000000000000000000000000000000000000000000000600052601160045260246000fd5b7f4e487b7100000000000000000000000000000000000000000000000000000000600052602160045260246000fd5b7f43616e6e6f742062696420616674657220646561646c696e6500000000000000600082015250565b7f5472616e7366657220686967686573742062696420746f2073656c6c65720000600082015250565b7f48696464656e20726f756e640000000000000000000000000000000000000000600082015250565b7f4465706f7369742076616c756520697320746f6f206c6f770000000000000000600082015250565b7f43616e6e6f7420636c6f736520726f756e64206265666f72652074686520646560008201527f61646c696e650000000000000000000000000000000000000000000000000000602082015250565b7f54686973206163636f756e7420686173206e6f742062696464656e20696e207460008201527f68652068696464656e20726f756e640000000000000000000000000000000000602082015250565b7f4f70656e2062696420616e642068696464656e2062696420646f206e6f74206d60008201527f6174636800000000000000000000000000000000000000000000000000000000602082015250565b7f5472616e7366657220636f6e74726163742062616c616e636520746f2073656c60008201527f6c65720000000000000000000000000000000000000000000000000000000000602082015250565b7f496e76616c696420737461746500000000000000000000000000000000000000600082015250565b7f596f7520617265206e6f74207468652077696e6e6572206f662074686520617560008201527f6374696f6e210000000000000000000000000000000000000000000000000000602082015250565b7f5472616e73666572206261636b206465706f73697420746f2062696464657200600082015250565b7f4269642076616c756520697320746f6f206c6f77000000000000000000000000600082015250565b7f4f70656e20726f756e6400000000000000000000000000000000000000000000600082015250565b7f4d7573742066696e6420612077696e6e6572206265666f72652073656e64696e60008201527f67206261636b206465706f736974730000000000000000000000000000000000602082015250565b600481106130bd576130bc612d5b565b5b50565b6130c981612c1a565b81146130d457600080fd5b50565b6130e081612c4a565b81146130eb57600080fd5b50565b6130f781612c87565b811461310257600080fd5b5056fea26469706673582212209dc2413ab73f3bcb0a84e089096c434258cd3fd8a814d10411fa2e1d90fd87d464736f6c63430008010033a2646970667358221220e4ecd7f1367f5e8f50e763ee204d34ae34d97d5180261afeab5c473e95a3cf8664736f6c63430008010033",
  "immutableReferences": {},
  "source": "// SPDX-License-Identifier: MIT\npragma solidity ^0.8.1;\nimport \"./AuctionController.sol\";\n\ncontract TestAuctionController is AuctionController {\n    uint256 time;\n\n    constructor() AuctionController() {}\n\n    function currentTime() internal view override returns (uint256) {\n        return time;\n    }\n\n    function setCurrentTime(uint256 newTime) public {\n        time = newTime;\n    }\n}",
  "sourcePath": "/Users/cristinatorp/Dropbox/Min Mac (nox)/Documents/Skole/Masteroppgave/AuctionCode/auction/contracts/TestAuctionController.sol",
  "compiler": {
    "name": "solc",
    "version": "0.8.1+commit.df193b15.Emscripten.clang"
  },
  "schemaVersion": "3.3.4",
  "updatedAt": "2021-04-27T20:03:02.930Z",
  "networkType": "ethereum",
  "devdoc": {
    "kind": "dev",
    "methods": {},
    "version": 1
  },
  "userdoc": {
    "kind": "user",
    "methods": {
      "deleteAuction(address)": {
        "notice": "Auction cannot be deleted until either:     (1) Token has been retrieved     (2) Token has expired Auction can only be deleted by admin or by the auction seller"
      },
      "getActiveAuctions()": {
        "notice": "Returns a list of all auctions that are open for bids"
      }
    },
    "version": 1
  }
}