{
  "contractName": "Utils",
  "abi": [
    {
      "inputs": [
        {
          "internalType": "uint256",
          "name": "x",
          "type": "uint256"
        }
      ],
      "name": "uintToBytes",
      "outputs": [
        {
          "internalType": "bytes",
          "name": "b",
          "type": "bytes"
        }
      ],
      "stateMutability": "pure",
      "type": "function",
      "constant": true
    },
    {
      "inputs": [
        {
          "internalType": "uint256",
          "name": "timeInMin",
          "type": "uint256"
        }
      ],
      "name": "minutesToSeconds",
      "outputs": [
        {
          "internalType": "uint256",
          "name": "",
          "type": "uint256"
        }
      ],
      "stateMutability": "pure",
      "type": "function",
      "constant": true
    }
  ],
  "bytecode": "0x610341610053600b82828239805160001a607314610046577f4e487b7100000000000000000000000000000000000000000000000000000000600052600060045260246000fd5b30600052607381538281f3fe73000000000000000000000000000000000000000030146080604052600436106100405760003560e01c8063529b380f1461004557806394e8767d14610075575b600080fd5b61005f600480360381019061005a9190610153565b6100a5565b60405161006c91906101e6565b60405180910390f35b61008f600480360381019061008a9190610153565b6100bb565b60405161009c91906101c4565b60405180910390f35b6000603c826100b4919061021d565b9050919050565b6060602067ffffffffffffffff8111156100fe577f4e487b7100000000000000000000000000000000000000000000000000000000600052604160045260246000fd5b6040519080825280601f01601f1916602001820160405280156101305781602001600182028036833780820191505090505b509050816020820152919050565b60008135905061014d816102f4565b92915050565b60006020828403121561016557600080fd5b60006101738482850161013e565b91505092915050565b600061018782610201565b610191818561020c565b93506101a1818560208601610281565b6101aa816102e3565b840191505092915050565b6101be81610277565b82525050565b600060208201905081810360008301526101de818461017c565b905092915050565b60006020820190506101fb60008301846101b5565b92915050565b600081519050919050565b600082825260208201905092915050565b600061022882610277565b915061023383610277565b9250817fffffffffffffffffffffffffffffffffffffffffffffffffffffffffffffffff048311821515161561026c5761026b6102b4565b5b828202905092915050565b6000819050919050565b60005b8381101561029f578082015181840152602081019050610284565b838111156102ae576000848401525b50505050565b7f4e487b7100000000000000000000000000000000000000000000000000000000600052601160045260246000fd5b6000601f19601f8301169050919050565b6102fd81610277565b811461030857600080fd5b5056fea264697066735822122030d09642e89181aa4354444073fbf74012e55595a34452cea097bc6a8ac395ac64736f6c63430008010033",
  "immutableReferences": {},
  "source": "// SPDX-License-Identifier: MIT\npragma solidity ^0.8.1;\n\nlibrary Utils {\n    function uintToString(uint _i) internal pure returns (string memory _uintAsString) {\n        if (_i == 0) {\n            return \"0\";\n        }\n        uint j = _i;\n        uint len;\n        while (j != 0) {\n            len++;\n            j /= 10;\n        }\n        bytes memory bstr = new bytes(len);\n        uint k = len;\n        while (_i != 0) {\n            k = k-1;\n            uint8 temp = (48 + uint8(_i - _i / 10 * 10));\n            bytes1 b1 = bytes1(temp);\n            bstr[k] = b1;\n            _i /= 10;\n        }\n        return string(bstr);\n    }\n\n    function uintToBytes(uint256 x) public pure returns(bytes memory b) {\n        b = new bytes(32);\n        assembly { mstore(add(b, 32), x) }\n    }\n\n    function minutesToSeconds(uint timeInMin) public pure returns(uint) {\n        return timeInMin * 1 minutes;\n    }\n}",
  "sourcePath": "/Users/cristinatorp/Dropbox/Min Mac (nox)/Documents/Skole/Masteroppgave/AuctionCode/auction/contracts/Utils.sol",
  "compiler": {
    "name": "solc",
    "version": "0.8.1+commit.df193b15.Emscripten.clang"
  },
  "schemaVersion": "3.3.4",
  "updatedAt": "2021-04-27T20:03:02.753Z",
  "networkType": "ethereum",
  "devdoc": {
    "kind": "dev",
    "methods": {},
    "version": 1
  },
  "userdoc": {
    "kind": "user",
    "methods": {},
    "version": 1
  }
}